{
  "contractName": "Staking",
  "abi": [
    {
      "constant": true,
      "inputs": [],
      "name": "rewardRateDenom",
      "outputs": [
        {
          "name": "",
          "type": "uint256"
        }
      ],
      "payable": false,
      "stateMutability": "view",
      "type": "function"
    },
    {
      "constant": true,
      "inputs": [],
      "name": "punishmentRateNum",
      "outputs": [
        {
          "name": "",
          "type": "uint256"
        }
      ],
      "payable": false,
      "stateMutability": "view",
      "type": "function"
    },
    {
      "constant": true,
      "inputs": [],
      "name": "lowerThreshold",
      "outputs": [
        {
          "name": "",
          "type": "int256"
        }
      ],
      "payable": false,
      "stateMutability": "view",
      "type": "function"
    },
    {
      "constant": true,
      "inputs": [],
      "name": "upperThreshold",
      "outputs": [
        {
          "name": "",
          "type": "int256"
        }
      ],
      "payable": false,
      "stateMutability": "view",
      "type": "function"
    },
    {
      "constant": true,
      "inputs": [
        {
          "name": "",
          "type": "address"
        },
        {
          "name": "",
          "type": "address"
        }
      ],
      "name": "stake",
      "outputs": [
        {
          "name": "",
          "type": "int256"
        }
      ],
      "payable": false,
      "stateMutability": "view",
      "type": "function"
    },
    {
      "constant": true,
      "inputs": [],
      "name": "rewardRateNum",
      "outputs": [
        {
          "name": "",
          "type": "uint256"
        }
      ],
      "payable": false,
      "stateMutability": "view",
      "type": "function"
    },
    {
      "constant": true,
      "inputs": [
        {
          "name": "",
          "type": "address"
        }
      ],
      "name": "totalStake",
      "outputs": [
        {
          "name": "",
          "type": "int256"
        }
      ],
      "payable": false,
      "stateMutability": "view",
      "type": "function"
    },
    {
      "constant": true,
      "inputs": [],
      "name": "punishmentRateDenom",
      "outputs": [
        {
          "name": "",
          "type": "uint256"
        }
      ],
      "payable": false,
      "stateMutability": "view",
      "type": "function"
    },
    {
      "inputs": [
        {
          "name": "tokenContractAddr",
          "type": "address"
        },
        {
          "name": "_vaultContractAddr",
          "type": "address"
        }
      ],
      "payable": false,
      "stateMutability": "nonpayable",
      "type": "constructor"
    },
    {
      "anonymous": false,
      "inputs": [
        {
          "indexed": true,
          "name": "_candidate",
          "type": "address"
        },
        {
          "indexed": true,
          "name": "_voter",
          "type": "address"
        },
        {
          "indexed": false,
          "name": "_value",
          "type": "int256"
        }
      ],
      "name": "Vote",
      "type": "event"
    },
    {
      "anonymous": false,
      "inputs": [
        {
          "indexed": true,
          "name": "_candidate",
          "type": "address"
        },
        {
          "indexed": false,
          "name": "voted",
          "type": "bool"
        }
      ],
      "name": "VoteConcluded",
      "type": "event"
    },
    {
      "constant": false,
      "inputs": [
        {
          "name": "_candidate",
          "type": "address"
        },
        {
          "name": "_value",
          "type": "int256"
        }
      ],
      "name": "setStake",
      "outputs": [],
      "payable": false,
      "stateMutability": "nonpayable",
      "type": "function"
    },
    {
      "constant": false,
      "inputs": [
        {
          "name": "_candidate",
          "type": "address"
        }
      ],
      "name": "cancelStake",
      "outputs": [],
      "payable": false,
      "stateMutability": "nonpayable",
      "type": "function"
    },
    {
      "constant": false,
      "inputs": [
        {
          "name": "_candidate",
          "type": "address"
        },
        {
          "name": "voted",
          "type": "bool"
        }
      ],
      "name": "calcAndGiveIncentive",
      "outputs": [],
      "payable": false,
      "stateMutability": "nonpayable",
      "type": "function"
    },
    {
      "constant": false,
      "inputs": [
        {
          "name": "_candidate",
          "type": "address"
        }
      ],
      "name": "resetAllStakesOn",
      "outputs": [],
      "payable": false,
      "stateMutability": "nonpayable",
      "type": "function"
    },
    {
      "constant": false,
      "inputs": [
        {
          "name": "value",
          "type": "int256"
        }
      ],
      "name": "setUpperThreshold",
      "outputs": [],
      "payable": false,
      "stateMutability": "nonpayable",
      "type": "function"
    },
    {
      "constant": false,
      "inputs": [
        {
          "name": "value",
          "type": "int256"
        }
      ],
      "name": "setLowerThreshold",
      "outputs": [],
      "payable": false,
      "stateMutability": "nonpayable",
      "type": "function"
    },
    {
      "constant": false,
      "inputs": [
        {
          "name": "value",
          "type": "uint256"
        }
      ],
      "name": "setRewardRateNum",
      "outputs": [],
      "payable": false,
      "stateMutability": "nonpayable",
      "type": "function"
    },
    {
      "constant": false,
      "inputs": [
        {
          "name": "value",
          "type": "uint256"
        }
      ],
      "name": "setRewardRateDenom",
      "outputs": [],
      "payable": false,
      "stateMutability": "nonpayable",
      "type": "function"
    },
    {
      "constant": false,
      "inputs": [
        {
          "name": "value",
          "type": "uint256"
        }
      ],
      "name": "setPunishmentRateNum",
      "outputs": [],
      "payable": false,
      "stateMutability": "nonpayable",
      "type": "function"
    },
    {
      "constant": false,
      "inputs": [
        {
          "name": "value",
          "type": "uint256"
        }
      ],
      "name": "setPunishmentRateDenom",
      "outputs": [],
      "payable": false,
      "stateMutability": "nonpayable",
      "type": "function"
    }
  ],
  "bytecode": "0x608060405234801561001057600080fd5b50604051604080620024c68339810180604052604081101561003157600080fd5b810190808051906020019092919080519060200190929190505050336000806101000a81548173ffffffffffffffffffffffffffffffffffffffff021916908373ffffffffffffffffffffffffffffffffffffffff16021790555081600260006101000a81548173ffffffffffffffffffffffffffffffffffffffff021916908373ffffffffffffffffffffffffffffffffffffffff160217905550600260009054906101000a900473ffffffffffffffffffffffffffffffffffffffff1673ffffffffffffffffffffffffffffffffffffffff1663bae88d5b306040518263ffffffff1660e01b8152600401808273ffffffffffffffffffffffffffffffffffffffff1673ffffffffffffffffffffffffffffffffffffffff168152602001915050600060405180830381600087803b15801561016e57600080fd5b505af1158015610182573d6000803e3d6000fd5b5050505080600160006101000a81548173ffffffffffffffffffffffffffffffffffffffff021916908373ffffffffffffffffffffffffffffffffffffffff160217905550600160009054906101000a900473ffffffffffffffffffffffffffffffffffffffff16600360006101000a81548173ffffffffffffffffffffffffffffffffffffffff021916908373ffffffffffffffffffffffffffffffffffffffff160217905550600360009054906101000a900473ffffffffffffffffffffffffffffffffffffffff1673ffffffffffffffffffffffffffffffffffffffff1663bae88d5b306040518263ffffffff1660e01b8152600401808273ffffffffffffffffffffffffffffffffffffffff1673ffffffffffffffffffffffffffffffffffffffff168152602001915050600060405180830381600087803b1580156102cb57600080fd5b505af11580156102df573d6000803e3d6000fd5b50505050620186a06004819055507ffffffffffffffffffffffffffffffffffffffffffffffffffffffffffffe796060058190555060016006819055506103e860078190555060016008819055506103e8600981905550505061217e80620003486000396000f3fe608060405234801561001057600080fd5b50600436106101165760003560e01c806373fe5a00116100a2578063a87ad8cf11610071578063a87ad8cf146103c3578063b273fc9a146103f1578063c68e4c2514610449578063e064172e14610477578063e099ffdc146104bb57610116565b806373fe5a00146102c1578063808615ac146102df5780638141b1321461035757806392a4fe50146103a557610116565b8063529d2710116100e9578063529d2710146101e557806354652ef4146102135780635cd0935d1461023157806366d7e9821461025f5780636ed355751461027d57610116565b806309eabfc81461011b5780632d6d069f1461016b57806332b5d01a14610199578063434a56f6146101b7575b600080fd5b6101696004803603604081101561013157600080fd5b81019080803573ffffffffffffffffffffffffffffffffffffffff1690602001909291908035151590602001909291905050506104d9565b005b6101976004803603602081101561018157600080fd5b81019080803590602001909291905050506109fe565b005b6101a1610aca565b6040518082815260200191505060405180910390f35b6101e3600480360360208110156101cd57600080fd5b8101908080359060200190929190505050610ad0565b005b610211600480360360208110156101fb57600080fd5b8101908080359060200190929190505050610b9c565b005b61021b610c68565b6040518082815260200191505060405180910390f35b61025d6004803603602081101561024757600080fd5b8101908080359060200190929190505050610c6e565b005b610267610d3a565b6040518082815260200191505060405180910390f35b6102bf6004803603602081101561029357600080fd5b81019080803573ffffffffffffffffffffffffffffffffffffffff169060200190929190505050610d40565b005b6102c9611200565b6040518082815260200191505060405180910390f35b610341600480360360408110156102f557600080fd5b81019080803573ffffffffffffffffffffffffffffffffffffffff169060200190929190803573ffffffffffffffffffffffffffffffffffffffff169060200190929190505050611206565b6040518082815260200191505060405180910390f35b6103a36004803603604081101561036d57600080fd5b81019080803573ffffffffffffffffffffffffffffffffffffffff1690602001909291908035906020019092919050505061122b565b005b6103ad6118ab565b6040518082815260200191505060405180910390f35b6103ef600480360360208110156103d957600080fd5b81019080803590602001909291905050506118b1565b005b6104336004803603602081101561040757600080fd5b81019080803573ffffffffffffffffffffffffffffffffffffffff16906020019092919050505061197d565b6040518082815260200191505060405180910390f35b6104756004803603602081101561045f57600080fd5b8101908080359060200190929190505050611995565b005b6104b96004803603602081101561048d57600080fd5b81019080803573ffffffffffffffffffffffffffffffffffffffff169060200190929190505050611a61565b005b6104c3611ecf565b6040518082815260200191505060405180910390f35b600160009054906101000a900473ffffffffffffffffffffffffffffffffffffffff1673ffffffffffffffffffffffffffffffffffffffff163373ffffffffffffffffffffffffffffffffffffffff161461059c576040517f08c379a00000000000000000000000000000000000000000000000000000000081526004018080602001828103825260158152602001807f596f75277265206e6f7420617574686f72697a6564000000000000000000000081525060200191505060405180910390fd5b60008090505b600c60008473ffffffffffffffffffffffffffffffffffffffff1673ffffffffffffffffffffffffffffffffffffffff168152602001908152602001600020805490508110156109f9576000600c60008573ffffffffffffffffffffffffffffffffffffffff1673ffffffffffffffffffffffffffffffffffffffff168152602001908152602001600020828154811061063857fe5b9060005260206000200160009054906101000a900473ffffffffffffffffffffffffffffffffffffffff169050600080600a60008773ffffffffffffffffffffffffffffffffffffffff1673ffffffffffffffffffffffffffffffffffffffff16815260200190815260200160002060008473ffffffffffffffffffffffffffffffffffffffff1673ffffffffffffffffffffffffffffffffffffffff16815260200190815260200160002054139050600061076f600a60008873ffffffffffffffffffffffffffffffffffffffff1673ffffffffffffffffffffffffffffffffffffffff16815260200190815260200160002060008573ffffffffffffffffffffffffffffffffffffffff1673ffffffffffffffffffffffffffffffffffffffff16815260200190815260200160002054611ed5565b9050600085801561077d5750825b8061079057508515801561078f575082155b5b905080156108c257600260009054906101000a900473ffffffffffffffffffffffffffffffffffffffff1673ffffffffffffffffffffffffffffffffffffffff166323b872dd6000809054906101000a900473ffffffffffffffffffffffffffffffffffffffff168660075486600654028161080857fe5b046040518463ffffffff1660e01b8152600401808473ffffffffffffffffffffffffffffffffffffffff1673ffffffffffffffffffffffffffffffffffffffff1681526020018373ffffffffffffffffffffffffffffffffffffffff1673ffffffffffffffffffffffffffffffffffffffff1681526020018281526020019350505050600060405180830381600087803b1580156108a557600080fd5b505af11580156108b9573d6000803e3d6000fd5b505050506109e8565b600260009054906101000a900473ffffffffffffffffffffffffffffffffffffffff1673ffffffffffffffffffffffffffffffffffffffff166323b872dd856000809054906101000a900473ffffffffffffffffffffffffffffffffffffffff1660095486600854028161093257fe5b046040518463ffffffff1660e01b8152600401808473ffffffffffffffffffffffffffffffffffffffff1673ffffffffffffffffffffffffffffffffffffffff1681526020018373ffffffffffffffffffffffffffffffffffffffff1673ffffffffffffffffffffffffffffffffffffffff1681526020018281526020019350505050600060405180830381600087803b1580156109cf57600080fd5b505af11580156109e3573d6000803e3d6000fd5b505050505b5050505080806001019150506105a2565b505050565b6000809054906101000a900473ffffffffffffffffffffffffffffffffffffffff1673ffffffffffffffffffffffffffffffffffffffff163373ffffffffffffffffffffffffffffffffffffffff1614610ac0576040517f08c379a00000000000000000000000000000000000000000000000000000000081526004018080602001828103825260158152602001807f596f75277265206e6f7420617574686f72697a6564000000000000000000000081525060200191505060405180910390fd5b8060048190555050565b60075481565b6000809054906101000a900473ffffffffffffffffffffffffffffffffffffffff1673ffffffffffffffffffffffffffffffffffffffff163373ffffffffffffffffffffffffffffffffffffffff1614610b92576040517f08c379a00000000000000000000000000000000000000000000000000000000081526004018080602001828103825260158152602001807f596f75277265206e6f7420617574686f72697a6564000000000000000000000081525060200191505060405180910390fd5b8060078190555050565b6000809054906101000a900473ffffffffffffffffffffffffffffffffffffffff1673ffffffffffffffffffffffffffffffffffffffff163373ffffffffffffffffffffffffffffffffffffffff1614610c5e576040517f08c379a00000000000000000000000000000000000000000000000000000000081526004018080602001828103825260158152602001807f596f75277265206e6f7420617574686f72697a6564000000000000000000000081525060200191505060405180910390fd5b8060098190555050565b60085481565b6000809054906101000a900473ffffffffffffffffffffffffffffffffffffffff1673ffffffffffffffffffffffffffffffffffffffff163373ffffffffffffffffffffffffffffffffffffffff1614610d30576040517f08c379a00000000000000000000000000000000000000000000000000000000081526004018080602001828103825260158152602001807f596f75277265206e6f7420617574686f72697a6564000000000000000000000081525060200191505060405180910390fd5b8060068190555050565b60055481565b600160009054906101000a900473ffffffffffffffffffffffffffffffffffffffff1673ffffffffffffffffffffffffffffffffffffffff163373ffffffffffffffffffffffffffffffffffffffff1614610e03576040517f08c379a00000000000000000000000000000000000000000000000000000000081526004018080602001828103825260158152602001807f596f75277265206e6f7420617574686f72697a6564000000000000000000000081525060200191505060405180910390fd5b600b60008273ffffffffffffffffffffffffffffffffffffffff1673ffffffffffffffffffffffffffffffffffffffff1681526020019081526020016000206000905560008090505b600c60008373ffffffffffffffffffffffffffffffffffffffff1673ffffffffffffffffffffffffffffffffffffffff168152602001908152602001600020805490508110156111b1576000600c60008473ffffffffffffffffffffffffffffffffffffffff1673ffffffffffffffffffffffffffffffffffffffff1681526020019081526020016000208281548110610ee257fe5b9060005260206000200160009054906101000a900473ffffffffffffffffffffffffffffffffffffffff1690506000610f96600a60008673ffffffffffffffffffffffffffffffffffffffff1673ffffffffffffffffffffffffffffffffffffffff16815260200190815260200160002060008473ffffffffffffffffffffffffffffffffffffffff1673ffffffffffffffffffffffffffffffffffffffff16815260200190815260200160002054611ed5565b9050600260009054906101000a900473ffffffffffffffffffffffffffffffffffffffff1673ffffffffffffffffffffffffffffffffffffffff166323b872dd6000809054906101000a900473ffffffffffffffffffffffffffffffffffffffff1684846040518463ffffffff1660e01b8152600401808473ffffffffffffffffffffffffffffffffffffffff1673ffffffffffffffffffffffffffffffffffffffff1681526020018373ffffffffffffffffffffffffffffffffffffffff1673ffffffffffffffffffffffffffffffffffffffff1681526020018281526020019350505050600060405180830381600087803b15801561109657600080fd5b505af11580156110aa573d6000803e3d6000fd5b50505050600a60008573ffffffffffffffffffffffffffffffffffffffff1673ffffffffffffffffffffffffffffffffffffffff1681526020019081526020016000206000600c60008773ffffffffffffffffffffffffffffffffffffffff1673ffffffffffffffffffffffffffffffffffffffff168152602001908152602001600020858154811061113957fe5b9060005260206000200160009054906101000a900473ffffffffffffffffffffffffffffffffffffffff1673ffffffffffffffffffffffffffffffffffffffff1673ffffffffffffffffffffffffffffffffffffffff1681526020019081526020016000206000905550508080600101915050610e4c565b50600c60008273ffffffffffffffffffffffffffffffffffffffff1673ffffffffffffffffffffffffffffffffffffffff16815260200190815260200160002060006111fd91906120e9565b50565b60045481565b600a602052816000526040600020602052806000526040600020600091509150505481565b600073ffffffffffffffffffffffffffffffffffffffff168273ffffffffffffffffffffffffffffffffffffffff1614156112ce576040517f08c379a000000000000000000000000000000000000000000000000000000000815260040180806020018281038252600f8152602001807f496e76616c69642061646472657373000000000000000000000000000000000081525060200191505060405180910390fd5b3373ffffffffffffffffffffffffffffffffffffffff168273ffffffffffffffffffffffffffffffffffffffff161415611370576040517f08c379a000000000000000000000000000000000000000000000000000000000815260040180806020018281038252600f8152602001807f496e76616c69642061646472657373000000000000000000000000000000000081525060200191505060405180910390fd5b6001600281111561137d57fe5b600360009054906101000a900473ffffffffffffffffffffffffffffffffffffffff1673ffffffffffffffffffffffffffffffffffffffff1663958e092a846040518263ffffffff1660e01b8152600401808273ffffffffffffffffffffffffffffffffffffffff1673ffffffffffffffffffffffffffffffffffffffff16815260200191505060206040518083038186803b15801561141c57600080fd5b505afa158015611430573d6000803e3d6000fd5b505050506040513d602081101561144657600080fd5b8101908080519060200190929190505050600281111561146257fe5b146114b8576040517f08c379a00000000000000000000000000000000000000000000000000000000081526004018080602001828103825260238152602001806121306023913960400191505060405180910390fd5b6000600a60008473ffffffffffffffffffffffffffffffffffffffff1673ffffffffffffffffffffffffffffffffffffffff16815260200190815260200160002060003373ffffffffffffffffffffffffffffffffffffffff1673ffffffffffffffffffffffffffffffffffffffff16815260200190815260200160002054146115aa576040517f08c379a00000000000000000000000000000000000000000000000000000000081526004018080602001828103825260148152602001807f596f7527766520616c726561647920766f74656400000000000000000000000081525060200191505060405180910390fd5b600c60008373ffffffffffffffffffffffffffffffffffffffff1673ffffffffffffffffffffffffffffffffffffffff1681526020019081526020016000203390806001815401808255809150509060018203906000526020600020016000909192909190916101000a81548173ffffffffffffffffffffffffffffffffffffffff021916908373ffffffffffffffffffffffffffffffffffffffff1602179055505080600b60008473ffffffffffffffffffffffffffffffffffffffff1673ffffffffffffffffffffffffffffffffffffffff16815260200190815260200160002060008282540192505081905550600260009054906101000a900473ffffffffffffffffffffffffffffffffffffffff1673ffffffffffffffffffffffffffffffffffffffff166323b872dd336000809054906101000a900473ffffffffffffffffffffffffffffffffffffffff1661170485611ed5565b6040518463ffffffff1660e01b8152600401808473ffffffffffffffffffffffffffffffffffffffff1673ffffffffffffffffffffffffffffffffffffffff1681526020018373ffffffffffffffffffffffffffffffffffffffff1673ffffffffffffffffffffffffffffffffffffffff1681526020018281526020019350505050600060405180830381600087803b1580156117a057600080fd5b505af11580156117b4573d6000803e3d6000fd5b5050505080600a60008473ffffffffffffffffffffffffffffffffffffffff1673ffffffffffffffffffffffffffffffffffffffff16815260200190815260200160002060003373ffffffffffffffffffffffffffffffffffffffff1673ffffffffffffffffffffffffffffffffffffffff1681526020019081526020016000208190555061184282611ef3565b3373ffffffffffffffffffffffffffffffffffffffff168273ffffffffffffffffffffffffffffffffffffffff167f79a02325cb94513a3505278348f98ec59be59bfe1bd80376ae39c5917247463f836040518082815260200191505060405180910390a35050565b60065481565b6000809054906101000a900473ffffffffffffffffffffffffffffffffffffffff1673ffffffffffffffffffffffffffffffffffffffff163373ffffffffffffffffffffffffffffffffffffffff1614611973576040517f08c379a00000000000000000000000000000000000000000000000000000000081526004018080602001828103825260158152602001807f596f75277265206e6f7420617574686f72697a6564000000000000000000000081525060200191505060405180910390fd5b8060088190555050565b600b6020528060005260406000206000915090505481565b6000809054906101000a900473ffffffffffffffffffffffffffffffffffffffff1673ffffffffffffffffffffffffffffffffffffffff163373ffffffffffffffffffffffffffffffffffffffff1614611a57576040517f08c379a00000000000000000000000000000000000000000000000000000000081526004018080602001828103825260158152602001807f596f75277265206e6f7420617574686f72697a6564000000000000000000000081525060200191505060405180910390fd5b8060058190555050565b6000611ae8600a60008473ffffffffffffffffffffffffffffffffffffffff1673ffffffffffffffffffffffffffffffffffffffff16815260200190815260200160002060003373ffffffffffffffffffffffffffffffffffffffff1673ffffffffffffffffffffffffffffffffffffffff16815260200190815260200160002054611ed5565b9050600260009054906101000a900473ffffffffffffffffffffffffffffffffffffffff1673ffffffffffffffffffffffffffffffffffffffff166323b872dd6000809054906101000a900473ffffffffffffffffffffffffffffffffffffffff1633846040518463ffffffff1660e01b8152600401808473ffffffffffffffffffffffffffffffffffffffff1673ffffffffffffffffffffffffffffffffffffffff1681526020018373ffffffffffffffffffffffffffffffffffffffff1673ffffffffffffffffffffffffffffffffffffffff1681526020018281526020019350505050600060405180830381600087803b158015611be857600080fd5b505af1158015611bfc573d6000803e3d6000fd5b50505050600a60008373ffffffffffffffffffffffffffffffffffffffff1673ffffffffffffffffffffffffffffffffffffffff16815260200190815260200160002060003373ffffffffffffffffffffffffffffffffffffffff1673ffffffffffffffffffffffffffffffffffffffff16815260200190815260200160002054600b60008473ffffffffffffffffffffffffffffffffffffffff1673ffffffffffffffffffffffffffffffffffffffff16815260200190815260200160002060008282540392505081905550600a60008373ffffffffffffffffffffffffffffffffffffffff1673ffffffffffffffffffffffffffffffffffffffff16815260200190815260200160002060003373ffffffffffffffffffffffffffffffffffffffff1673ffffffffffffffffffffffffffffffffffffffff1681526020019081526020016000206000905560008090505b600c60008473ffffffffffffffffffffffffffffffffffffffff1673ffffffffffffffffffffffffffffffffffffffff16815260200190815260200160002080549050811015611eca573373ffffffffffffffffffffffffffffffffffffffff16600c60008573ffffffffffffffffffffffffffffffffffffffff1673ffffffffffffffffffffffffffffffffffffffff1681526020019081526020016000208281548110611dfa57fe5b9060005260206000200160009054906101000a900473ffffffffffffffffffffffffffffffffffffffff1673ffffffffffffffffffffffffffffffffffffffff161415611ebd57600c60008473ffffffffffffffffffffffffffffffffffffffff1673ffffffffffffffffffffffffffffffffffffffff1681526020019081526020016000208181548110611e8b57fe5b9060005260206000200160006101000a81549073ffffffffffffffffffffffffffffffffffffffff0219169055611eca565b8080600101915050611d4f565b505050565b60095481565b600080821215611eea57816000039050611eee565b8190505b919050565b600454600b60008373ffffffffffffffffffffffffffffffffffffffff1673ffffffffffffffffffffffffffffffffffffffff16815260200190815260200160002054121580611f845750600554600b60008373ffffffffffffffffffffffffffffffffffffffff1673ffffffffffffffffffffffffffffffffffffffff1681526020019081526020016000205413155b156120e6576000600454600b60008473ffffffffffffffffffffffffffffffffffffffff1673ffffffffffffffffffffffffffffffffffffffff1681526020019081526020016000205412159050801561209257600360009054906101000a900473ffffffffffffffffffffffffffffffffffffffff1673ffffffffffffffffffffffffffffffffffffffff1663bbdfa00e836040518263ffffffff1660e01b8152600401808273ffffffffffffffffffffffffffffffffffffffff1673ffffffffffffffffffffffffffffffffffffffff168152602001915050600060405180830381600087803b15801561207957600080fd5b505af115801561208d573d6000803e3d6000fd5b505050505b8173ffffffffffffffffffffffffffffffffffffffff167ff03901134018e173e1733d2ceb5b35ee59b0d3beae25c083973abbe294ae854f82604051808215151515815260200191505060405180910390a2505b50565b5080546000825590600052602060002090810190612107919061210a565b50565b61212c91905b80821115612128576000816000905550600101612110565b5090565b9056fe5468652063616e6469646174652069736e27742061736b696e6720616e7920766f7465a165627a7a7230582095b2fb02ce1167f49c6d82577eefcfd3d50126c94c06fb8c9d915ad2e22e84440029",
  "source": "pragma solidity >=0.4.25 <0.6.0;\n\nimport './TrstToken.sol';\nimport './Vault.sol';\n\n/**\n@author Senapati Sang Diwangkara, from Affluent team\n\n@title The Staking Contract\n\nStaking is a contract that handles the voting part of the Clint system. It also\nprovides the means for administrator to set reward and punishment rate of the\ncorrect/false stake\n\nThe logic in this contract is inspired by ERC-20's delegated transfer mechanism,\nwhere voter -> spender and candidate -> owner\n\nAmong the 3 contracts, this contract must be deployed last, because it depends on the\nother two contracts.\n*/\ncontract Staking {\n\taddress root;\n\taddress payable vaultContractAddr;\n\tTrstToken tokenContract;\n\tVault vaultContract;\n\n\tint public upperThreshold; // How much mTrst untill liquidation?\n\tint public lowerThreshold; // How much mTrst untill cancellation?\n\tuint public rewardRateNum;\n\tuint public rewardRateDenom;\n\tuint public punishmentRateNum;\n\tuint public punishmentRateDenom;\n\n\t/**\n\t* @dev A variable that states how much a voter has staked for a given candidate\n\t* Accessed by stake[candidate][voter]\n\t* In ERC-20, this is called `_allowed`\n\t*/\n\tmapping (address => mapping (address => int256)) public stake;\n\tmapping (address => int256) public totalStake;\n\tmapping (address => address[]) private stakers;\n\n\tconstructor(address payable tokenContractAddr, address payable _vaultContractAddr) public {\n\t\troot = msg.sender;\n\t\ttokenContract = TrstToken(tokenContractAddr);\n\t\ttokenContract.setStakeContractAddr(address(this));\n\t\tvaultContractAddr = _vaultContractAddr;\n\t\tvaultContract = Vault(vaultContractAddr);\n\t\tvaultContract.setStakeContractAddr(address(this));\n\n\t\tupperThreshold = 100000;\n\t\tlowerThreshold = -100000;\n\n\t\trewardRateNum = 1;\n\t\trewardRateDenom = 1000; // 1 mTrst rewarded for every Trst staked\n\t\tpunishmentRateNum = 1;\n\t\tpunishmentRateDenom = 1000;\n\n\t}\n\n\n\n\t// *** Modifiers ***\n\tmodifier onlyRoot() {\n\t\trequire(msg.sender == root, \"You're not authorized\");\n\t\t_;\n\t}\n\n\tmodifier onlyVaultContract() {\n\t\trequire(msg.sender == vaultContractAddr, \"You're not authorized\");\n\t\t_;\n\t}\n\n\n\n\t// *** Events ***\n\tevent Vote(address indexed _candidate, address indexed _voter, int256 _value);\n\tevent VoteConcluded(address indexed _candidate, bool voted);\n\n\n\n\t// *** Operation Methods ***\n\t/**\n\t* @dev Set the stake that a voter will vouch for a candidate\n\t*\tIn ERC-20, this is called `allowed` and instead of owner, spender will be set as input\n\t* \tNOTE: prevent race condition by setting the _value to 0 first before\n\t* \tsetting it to the value we want. This must be done in the frontend.\n\t* @param _candidate The address whose voter stake to\n\t* @param _value The amount of stake\n\t*/\n\tfunction setStake(address payable _candidate, int256 _value) external {\n\t\trequire(_candidate != address(0), \"Invalid address\");\n\t\trequire(_candidate != msg.sender, \"Invalid address\");\n\t\trequire(vaultContract.loanStatus(_candidate) == Vault.LoanStatus.PROPOSED, \"The candidate isn't asking any vote\");\n\t\trequire(stake[_candidate][msg.sender] == 0, \"You've already voted\");\n\t\t// TODO: clamp mechanism\n\n\t\tstakers[_candidate].push(msg.sender);\n\n\t\t// Move balance accordingly\n\t\ttotalStake[_candidate] += _value;\n\t\ttokenContract.transferFrom(msg.sender, root, _abs(_value));\n\t\tstake[_candidate][msg.sender] = _value;\n\n\t\t// Act if trust threshold exceeded\n\t\t_checkBallot(_candidate);\n\n\t\temit Vote(_candidate, msg.sender, _value);\n\t}\n\n\t/**\n\t* @dev Cancel the sender's stake on a candidate\n\t* @param _candidate The address whom the sender staked to\n\t*/\n\tfunction cancelStake(address _candidate) external {\n\t\tuint256 absStake = _abs(stake[_candidate][msg.sender]);\n\n\t\ttokenContract.transferFrom(root, msg.sender, absStake);\n\n\t\ttotalStake[_candidate] -= stake[_candidate][msg.sender];\n\t\tdelete stake[_candidate][msg.sender];\n\n\t\tfor (uint i = 0; i < stakers[_candidate].length; i++) {\n\t\t\tif (stakers[_candidate][i] == msg.sender) {\n\t\t\t\tdelete stakers[_candidate][i];\n\t\t\t\tbreak;\n\t\t\t}\n\t\t}\n\t}\n\n\t/**\n\t* @dev Calculate incentive based on stake and give them accordingly. Can only be called\n\t* \tby vault contract\n\t* @param _candidate The candidate whose voters will be acted upon\n\t* @param voted Whether the loan is successful or not\n\t*/\n\tfunction calcAndGiveIncentive(address _candidate, bool voted) external onlyVaultContract {\n\t\tfor (uint i = 0; i < stakers[_candidate].length; i++) {\n\t\t\taddress staker = stakers[_candidate][i];\n\t\t\tbool isYes = stake[_candidate][staker] > 0;\n\t\t\tuint256 absStake = _abs(stake[_candidate][staker]);\n\n\t\t\tbool reward = (voted && isYes) || (!voted && !isYes); // XNOR\n\t\t\tif (reward) {\n\t\t\t\ttokenContract.transferFrom(root, staker, rewardRateNum * absStake / rewardRateDenom);\n\t\t\t} else {\n\t\t\t\ttokenContract.transferFrom(staker, root, punishmentRateNum * absStake / punishmentRateDenom);\n\t\t\t}\n\t\t}\n\t}\n\n\t/**\n\t* @dev Reset all the stake that has been staked for a candidate. Can only be called by vault contract\n\t* @param _candidate The candidate whose voters will be reseted\n\t*/\n\tfunction resetAllStakesOn(address _candidate) external onlyVaultContract {\n\t\tdelete totalStake[_candidate];\n\t\tfor (uint i = 0; i < stakers[_candidate].length; i++) {\n\t\t\taddress staker = stakers[_candidate][i];\n\t\t\tuint256 absStake = _abs(stake[_candidate][staker]);\n\t\t\ttokenContract.transferFrom(root, staker, absStake);\n\n\t\t\tdelete stake[_candidate][stakers[_candidate][i]];\n\t\t}\n\t\tdelete stakers[_candidate];\n\t}\n\n\n\n\t// *** Administrative Methods ***\n\t/**\n\t* @dev Set the total stake's upper threshold. Can only be called by root\n\t* @param value New upperThreshold value\n\t*/\n\tfunction setUpperThreshold(int value) external onlyRoot {\n\t\tupperThreshold = value;\n\t}\n\n\t/**\n\t* @dev Set the total stake's lower threshold. Can only be called by root\n\t* @param value New lowerThreshold value\n\t*/\n\tfunction setLowerThreshold(int value) external onlyRoot {\n\t\tlowerThreshold = value;\n\t}\n\n\t/**\n\t* @dev Set the reward rate's numerator. Can only be called by root\n\t* @param value New rewardRateNum value\n\t*/\n\tfunction setRewardRateNum(uint value) external onlyRoot {\n\t\trewardRateNum = value;\n\t}\n\n\t/**\n\t* @dev Set the reward rate's denominator. Can only be called by root\n\t* @param value New rewardRateDenom value\n\t*/\n\tfunction setRewardRateDenom(uint value) external onlyRoot {\n\t\trewardRateDenom = value;\n\t}\n\n\t/**\n\t* @dev Set the punishment rate's numerator. Can only be called by root\n\t* @param value New punishmentRateNum value\n\t*/\n\tfunction setPunishmentRateNum(uint value) external onlyRoot {\n\t\tpunishmentRateNum = value;\n\t}\n\n\t/**\n\t* @dev Set the punishment rate's denominator. Can only be called by root\n\t* @param value New punishmentRateDenom value\n\t*/\n\tfunction setPunishmentRateDenom(uint value) external onlyRoot {\n\t\tpunishmentRateDenom = value;\n\t}\n\n\n\n\t// *** Internal Methods ***\n\t/**\n\t* @dev Check whether the votes are sufficient or not\n\t* @param _candidate The candidate who will be checked\n\t*/\n\tfunction _checkBallot(address payable _candidate) private {\n\t\tif (totalStake[_candidate] >= upperThreshold || totalStake[_candidate] <= lowerThreshold) {\n\t\t\tbool voted = totalStake[_candidate] >= upperThreshold;\n\n\t\t\t// Liquidate loan\n\t\t\tif (voted) {\n\t\t\t\tvaultContract.liquidateLoan(_candidate);\n\t\t\t}\n\n\t\t\t// calcAndGiveIncentive(_candidate, voted);\n\t\t\t// resetAllStakesOn(_candidate);\n\n\t\t\temit VoteConcluded(_candidate, voted);\n\t\t}\n\t}\n\n\t/**\n\t* @dev Convert int to uint in an absolute manner\n\t* @param signed int value\n\t* @return uint value\n\t*/\n\tfunction _abs(int signed) private pure returns (uint) {\n\t\tif (signed < 0) {\n\t\t\treturn uint(-signed);\n\t\t} else {\n\t\t\treturn uint(signed);\n\t\t}\n\t}\n}",
  "sourcePath": "/home/diwangs/Codes/clint/clint-dapp/contracts/Staking.sol",
  "compiler": {
    "name": "solc",
    "version": "0.5.8+commit.23d335f2.Emscripten.clang"
  },
  "schemaVersion": "3.0.17",
  "updatedAt": "2019-11-13T15:50:02.068Z",
  "networkType": "ethereum",
  "devdoc": {
    "author": "Senapati Sang Diwangkara, from Affluent team",
    "methods": {
      "calcAndGiveIncentive(address,bool)": {
        "details": "Calculate incentive based on stake and give them accordingly. Can only be called\tby vault contract",
        "params": {
          "_candidate": "The candidate whose voters will be acted upon",
          "voted": "Whether the loan is successful or not"
        }
      },
      "cancelStake(address)": {
        "details": "Cancel the sender's stake on a candidate",
        "params": {
          "_candidate": "The address whom the sender staked to"
        }
      },
      "resetAllStakesOn(address)": {
        "details": "Reset all the stake that has been staked for a candidate. Can only be called by vault contract",
        "params": {
          "_candidate": "The candidate whose voters will be reseted"
        }
      },
      "setLowerThreshold(int256)": {
        "details": "Set the total stake's lower threshold. Can only be called by root",
        "params": {
          "value": "New lowerThreshold value"
        }
      },
      "setPunishmentRateDenom(uint256)": {
        "details": "Set the punishment rate's denominator. Can only be called by root",
        "params": {
          "value": "New punishmentRateDenom value"
        }
      },
      "setPunishmentRateNum(uint256)": {
        "details": "Set the punishment rate's numerator. Can only be called by root",
        "params": {
          "value": "New punishmentRateNum value"
        }
      },
      "setRewardRateDenom(uint256)": {
        "details": "Set the reward rate's denominator. Can only be called by root",
        "params": {
          "value": "New rewardRateDenom value"
        }
      },
      "setRewardRateNum(uint256)": {
        "details": "Set the reward rate's numerator. Can only be called by root",
        "params": {
          "value": "New rewardRateNum value"
        }
      },
      "setStake(address,int256)": {
        "details": "Set the stake that a voter will vouch for a candidate In ERC-20, this is called `allowed` and instead of owner, spender will be set as input\tNOTE: prevent race condition by setting the _value to 0 first before\tsetting it to the value we want. This must be done in the frontend.",
        "params": {
          "_candidate": "The address whose voter stake to",
          "_value": "The amount of stake"
        }
      },
      "setUpperThreshold(int256)": {
        "details": "Set the total stake's upper threshold. Can only be called by root",
        "params": {
          "value": "New upperThreshold value"
        }
      }
    },
    "title": "The Staking Contract Staking is a contract that handles the voting part of the Clint system. It also provides the means for administrator to set reward and punishment rate of the correct/false stake The logic in this contract is inspired by ERC-20's delegated transfer mechanism, where voter -> spender and candidate -> owner Among the 3 contracts, this contract must be deployed last, because it depends on the other two contracts."
  },
  "userdoc": {
    "methods": {}
  }
}