{
  "contractName": "TrstToken",
  "abi": [
    {
      "inputs": [],
      "payable": false,
      "stateMutability": "nonpayable",
      "type": "constructor"
    },
    {
      "constant": true,
      "inputs": [
        {
          "name": "_owner",
          "type": "address"
        }
      ],
      "name": "balanceOf",
      "outputs": [
        {
          "name": "",
          "type": "uint256"
        }
      ],
      "payable": false,
      "stateMutability": "view",
      "type": "function"
    },
    {
      "constant": true,
      "inputs": [],
      "name": "totalSupply",
      "outputs": [
        {
          "name": "",
          "type": "uint256"
        }
      ],
      "payable": false,
      "stateMutability": "view",
      "type": "function"
    },
    {
      "constant": false,
      "inputs": [
        {
          "name": "_from",
          "type": "address"
        },
        {
          "name": "_to",
          "type": "address"
        },
        {
          "name": "_value",
          "type": "uint256"
        }
      ],
      "name": "transferFrom",
      "outputs": [
        {
          "name": "",
          "type": "bool"
        }
      ],
      "payable": false,
      "stateMutability": "nonpayable",
      "type": "function"
    },
    {
      "constant": false,
      "inputs": [
        {
          "name": "_value",
          "type": "uint256"
        }
      ],
      "name": "redeem",
      "outputs": [
        {
          "name": "",
          "type": "bool"
        }
      ],
      "payable": false,
      "stateMutability": "nonpayable",
      "type": "function"
    },
    {
      "constant": false,
      "inputs": [
        {
          "name": "_address",
          "type": "address"
        },
        {
          "name": "_value",
          "type": "uint256"
        }
      ],
      "name": "mint",
      "outputs": [
        {
          "name": "",
          "type": "bool"
        }
      ],
      "payable": false,
      "stateMutability": "nonpayable",
      "type": "function"
    },
    {
      "constant": false,
      "inputs": [
        {
          "name": "_address",
          "type": "address"
        },
        {
          "name": "_value",
          "type": "uint256"
        }
      ],
      "name": "burn",
      "outputs": [
        {
          "name": "",
          "type": "bool"
        }
      ],
      "payable": false,
      "stateMutability": "nonpayable",
      "type": "function"
    },
    {
      "constant": false,
      "inputs": [
        {
          "name": "_address",
          "type": "address"
        }
      ],
      "name": "setStakeContractAddr",
      "outputs": [],
      "payable": false,
      "stateMutability": "nonpayable",
      "type": "function"
    }
  ],
  "bytecode": "0x608060405234801561001057600080fd5b50336000806101000a81548173ffffffffffffffffffffffffffffffffffffffff021916908373ffffffffffffffffffffffffffffffffffffffff160217905550620186a0600460008060009054906101000a900473ffffffffffffffffffffffffffffffffffffffff1673ffffffffffffffffffffffffffffffffffffffff1673ffffffffffffffffffffffffffffffffffffffff16815260200190815260200160002081905550600460008060009054906101000a900473ffffffffffffffffffffffffffffffffffffffff1673ffffffffffffffffffffffffffffffffffffffff1673ffffffffffffffffffffffffffffffffffffffff168152602001908152602001600020546002819055506103e8600381905550610887806101386000396000f3fe608060405234801561001057600080fd5b506004361061007d5760003560e01c806370a082311161005b57806370a082311461018c5780639dc29fac146101e4578063bae88d5b1461024a578063db006a751461028e5761007d565b806318160ddd1461008257806323b872dd146100a057806340c10f1914610126575b600080fd5b61008a6102d4565b6040518082815260200191505060405180910390f35b61010c600480360360608110156100b657600080fd5b81019080803573ffffffffffffffffffffffffffffffffffffffff169060200190929190803573ffffffffffffffffffffffffffffffffffffffff169060200190929190803590602001909291905050506102de565b604051808215151515815260200191505060405180910390f35b6101726004803603604081101561013c57600080fd5b81019080803573ffffffffffffffffffffffffffffffffffffffff1690602001909291908035906020019092919050505061054c565b604051808215151515815260200191505060405180910390f35b6101ce600480360360208110156101a257600080fd5b81019080803573ffffffffffffffffffffffffffffffffffffffff169060200190929190505050610677565b6040518082815260200191505060405180910390f35b610230600480360360408110156101fa57600080fd5b81019080803573ffffffffffffffffffffffffffffffffffffffff169060200190929190803590602001909291905050506106c0565b604051808215151515815260200191505060405180910390f35b61028c6004803603602081101561026057600080fd5b81019080803573ffffffffffffffffffffffffffffffffffffffff1690602001909291905050506107eb565b005b6102ba600480360360208110156102a457600080fd5b810190808035906020019092919050505061082f565b604051808215151515815260200191505060405180910390f35b6000600254905090565b6000600160009054906101000a900473ffffffffffffffffffffffffffffffffffffffff1673ffffffffffffffffffffffffffffffffffffffff163373ffffffffffffffffffffffffffffffffffffffff16146103a3576040517f08c379a000000000000000000000000000000000000000000000000000000000815260040180806020018281038252601b8152602001807f596f75277265206e6f742061207374616b6520636f6e7472616374000000000081525060200191505060405180910390fd5b600073ffffffffffffffffffffffffffffffffffffffff168373ffffffffffffffffffffffffffffffffffffffff161415610429576040517f08c379a000000000000000000000000000000000000000000000000000000000815260040180806020018281038252602181526020018061083b6021913960400191505060405180910390fd5b61043284610677565b8211156104a7576040517f08c379a00000000000000000000000000000000000000000000000000000000081526004018080602001828103825260148152602001807f496e73756666696369656e742062616c616e636500000000000000000000000081525060200191505060405180910390fd5b81600460008673ffffffffffffffffffffffffffffffffffffffff1673ffffffffffffffffffffffffffffffffffffffff1681526020019081526020016000206000828254039250508190555081600460008573ffffffffffffffffffffffffffffffffffffffff1673ffffffffffffffffffffffffffffffffffffffff16815260200190815260200160002060008282540192505081905550600190509392505050565b60008060009054906101000a900473ffffffffffffffffffffffffffffffffffffffff1673ffffffffffffffffffffffffffffffffffffffff163373ffffffffffffffffffffffffffffffffffffffff1614610610576040517f08c379a000000000000000000000000000000000000000000000000000000000815260040180806020018281038252600f8152602001807f596f75277265206e6f7420726f6f74000000000000000000000000000000000081525060200191505060405180910390fd5b81600460008573ffffffffffffffffffffffffffffffffffffffff1673ffffffffffffffffffffffffffffffffffffffff16815260200190815260200160002060008282540192505081905550816002600082825401925050819055506001905092915050565b6000600460008373ffffffffffffffffffffffffffffffffffffffff1673ffffffffffffffffffffffffffffffffffffffff168152602001908152602001600020549050919050565b60008060009054906101000a900473ffffffffffffffffffffffffffffffffffffffff1673ffffffffffffffffffffffffffffffffffffffff163373ffffffffffffffffffffffffffffffffffffffff1614610784576040517f08c379a000000000000000000000000000000000000000000000000000000000815260040180806020018281038252600f8152602001807f596f75277265206e6f7420726f6f74000000000000000000000000000000000081525060200191505060405180910390fd5b81600460008573ffffffffffffffffffffffffffffffffffffffff1673ffffffffffffffffffffffffffffffffffffffff16815260200190815260200160002060008282540392505081905550816002600082825403925050819055506001905092915050565b80600160006101000a81548173ffffffffffffffffffffffffffffffffffffffff021916908373ffffffffffffffffffffffffffffffffffffffff16021790555050565b60006001905091905056fe44657374696e6174696f6e2061646472657373206d757374206e6f742062652030a165627a7a72305820c7f2e22c506da2ae3fb839d36b944a8c9b3870efe9e1c703b9289b844c37907a0029",
  "source": "pragma solidity >=0.4.25 <0.6.0;\n\ncontract TrstToken {\n\taddress _root;\n    address _stakeContractAddr;\n\n\tuint256 _totalSupply;\n\tuint256 _price;\n\n\tmapping (address => uint256) private _balances; // in milliTrst\n\n\tconstructor() public {\n\t\t_root = msg.sender;\n\t\t_balances[_root] = 100000;\n\t\t_totalSupply = _balances[_root];\n\n\t\t_price = 1000; // 1000 wei == 1 milliTrst\n\t}\n\n\n    modifier onlyRoot() {\n        require(msg.sender == _root, \"You're not root\");\n        _;\n    }\n\n    modifier onlyStakeContract() {\n        require(msg.sender == _stakeContractAddr, \"You're not a stake contract\");\n        _;\n    }\n\n\n    function balanceOf(address _owner) public view returns (uint256) {\n\t\treturn _balances[_owner];\n\t}\n\n    function totalSupply() public view returns (uint256) {\n\t\treturn _totalSupply;\n\t}\n\n\n    /**\n\t* @dev Transfer some token from an account to another\n\t* @param _to The address to transfer to\n\t* @param _value The amount to be transferred\n\t* @return a boolean indicating the transfer status\n\t*/\n\tfunction transferFrom(address _from, address _to, uint256 _value) public onlyStakeContract returns (bool) {\n\t\trequire(_to != address(0), \"Destination address must not be 0\"); // Prevent burning?\n\t\trequire(_value <= balanceOf(_from), \"Insufficient balance\");\n\n\t\t_balances[_from] -= _value;\n\t\t_balances[_to] += _value;\n\n\t\treturn true;\n\t}\n\n    function redeem(uint256 _value) public returns (bool) {\n        // check if sufficient\n        // send ETH to msg.sender\n        return true;\n    }\n\n\n    // Administrative\n\tfunction mint(address _address, uint256 _value) public onlyRoot returns (bool) {\n\t\t_balances[_address] += _value;\n\t\t_totalSupply += _value;\n\t\treturn true;\n\t}\n\n    function burn(address _address, uint256 _value) public onlyRoot returns (bool) {\n\t\t_balances[_address] -= _value;\n\t\t_totalSupply -= _value;\n\t\treturn true;\n\t}\n\n    // TODO: Authorize this\n    function setStakeContractAddr(address _address) public {\n        _stakeContractAddr = _address;\n    }\n}",
  "sourcePath": "/home/diwangs/Codes/clint/clint-dapp/contracts/TrstToken.sol",
  "compiler": {
    "name": "solc",
    "version": "0.5.8+commit.23d335f2.Emscripten.clang"
  },
  "schemaVersion": "3.0.16",
  "updatedAt": "2019-10-25T12:28:15.412Z",
  "devdoc": {
    "methods": {
      "transferFrom(address,address,uint256)": {
        "details": "Transfer some token from an account to another",
        "params": {
          "_to": "The address to transfer to",
          "_value": "The amount to be transferred"
        },
        "return": "a boolean indicating the transfer status"
      }
    }
  },
  "userdoc": {
    "methods": {}
  }
}