{
  "contractName": "TrstToken",
  "abi": [
    {
      "constant": true,
      "inputs": [],
      "name": "totalSupply",
      "outputs": [
        {
          "name": "",
          "type": "uint256"
        }
      ],
      "payable": false,
      "stateMutability": "view",
      "type": "function"
    },
    {
      "constant": true,
      "inputs": [],
      "name": "price",
      "outputs": [
        {
          "name": "",
          "type": "uint256"
        }
      ],
      "payable": false,
      "stateMutability": "view",
      "type": "function"
    },
    {
      "constant": true,
      "inputs": [
        {
          "name": "",
          "type": "address"
        }
      ],
      "name": "balance",
      "outputs": [
        {
          "name": "",
          "type": "uint256"
        }
      ],
      "payable": false,
      "stateMutability": "view",
      "type": "function"
    },
    {
      "inputs": [],
      "payable": false,
      "stateMutability": "nonpayable",
      "type": "constructor"
    },
    {
      "payable": true,
      "stateMutability": "payable",
      "type": "fallback"
    },
    {
      "anonymous": false,
      "inputs": [
        {
          "indexed": true,
          "name": "_from",
          "type": "address"
        },
        {
          "indexed": true,
          "name": "_to",
          "type": "address"
        },
        {
          "indexed": false,
          "name": "_value",
          "type": "uint256"
        }
      ],
      "name": "TokenTx",
      "type": "event"
    },
    {
      "anonymous": false,
      "inputs": [
        {
          "indexed": false,
          "name": "_price",
          "type": "uint256"
        }
      ],
      "name": "PriceChange",
      "type": "event"
    },
    {
      "constant": false,
      "inputs": [
        {
          "name": "_from",
          "type": "address"
        },
        {
          "name": "_to",
          "type": "address"
        },
        {
          "name": "_value",
          "type": "uint256"
        }
      ],
      "name": "transferFrom",
      "outputs": [],
      "payable": false,
      "stateMutability": "nonpayable",
      "type": "function"
    },
    {
      "constant": false,
      "inputs": [
        {
          "name": "_value",
          "type": "uint256"
        }
      ],
      "name": "redeem",
      "outputs": [],
      "payable": false,
      "stateMutability": "nonpayable",
      "type": "function"
    },
    {
      "constant": false,
      "inputs": [
        {
          "name": "_address",
          "type": "address"
        },
        {
          "name": "_value",
          "type": "uint256"
        }
      ],
      "name": "mint",
      "outputs": [],
      "payable": false,
      "stateMutability": "nonpayable",
      "type": "function"
    },
    {
      "constant": false,
      "inputs": [
        {
          "name": "_address",
          "type": "address"
        },
        {
          "name": "_value",
          "type": "uint256"
        }
      ],
      "name": "burn",
      "outputs": [],
      "payable": false,
      "stateMutability": "nonpayable",
      "type": "function"
    },
    {
      "constant": false,
      "inputs": [
        {
          "name": "_price",
          "type": "uint256"
        }
      ],
      "name": "setPrice",
      "outputs": [],
      "payable": false,
      "stateMutability": "nonpayable",
      "type": "function"
    },
    {
      "constant": false,
      "inputs": [
        {
          "name": "_value",
          "type": "uint256"
        }
      ],
      "name": "withdraw",
      "outputs": [],
      "payable": false,
      "stateMutability": "nonpayable",
      "type": "function"
    },
    {
      "constant": false,
      "inputs": [
        {
          "name": "_address",
          "type": "address"
        }
      ],
      "name": "setVaultContractAddr",
      "outputs": [],
      "payable": false,
      "stateMutability": "nonpayable",
      "type": "function"
    },
    {
      "constant": false,
      "inputs": [
        {
          "name": "_address",
          "type": "address"
        }
      ],
      "name": "setStakeContractAddr",
      "outputs": [],
      "payable": false,
      "stateMutability": "nonpayable",
      "type": "function"
    }
  ],
  "bytecode": "0x608060405234801561001057600080fd5b50336000806101000a81548173ffffffffffffffffffffffffffffffffffffffff021916908373ffffffffffffffffffffffffffffffffffffffff160217905550620186a0600560008060009054906101000a900473ffffffffffffffffffffffffffffffffffffffff1673ffffffffffffffffffffffffffffffffffffffff1673ffffffffffffffffffffffffffffffffffffffff16815260200190815260200160002081905550600560008060009054906101000a900473ffffffffffffffffffffffffffffffffffffffff1673ffffffffffffffffffffffffffffffffffffffff1673ffffffffffffffffffffffffffffffffffffffff168152602001908152602001600020546003819055506103e8600481905550611011806101386000396000f3fe60806040526004361061009c5760003560e01c80639dc29fac116100645780639dc29fac14610215578063a035b1fe14610270578063aa3e6a831461029b578063bae88d5b146102ec578063db006a751461033d578063e3d670d7146103785761009c565b806318160ddd1461009e57806323b872dd146100c95780632e1a7d4d1461014457806340c10f191461017f57806391b7f5ed146101da575b005b3480156100aa57600080fd5b506100b36103dd565b6040518082815260200191505060405180910390f35b3480156100d557600080fd5b50610142600480360360608110156100ec57600080fd5b81019080803573ffffffffffffffffffffffffffffffffffffffff169060200190929190803573ffffffffffffffffffffffffffffffffffffffff169060200190929190803590602001909291905050506103e3565b005b34801561015057600080fd5b5061017d6004803603602081101561016757600080fd5b810190808035906020019092919050505061059b565b005b34801561018b57600080fd5b506101d8600480360360408110156101a257600080fd5b81019080803573ffffffffffffffffffffffffffffffffffffffff169060200190929190803590602001909291905050506106c8565b005b3480156101e657600080fd5b50610213600480360360208110156101fd57600080fd5b8101908080359060200190929190505050610851565b005b34801561022157600080fd5b5061026e6004803603604081101561023857600080fd5b81019080803573ffffffffffffffffffffffffffffffffffffffff16906020019092919080359060200190929190505050610954565b005b34801561027c57600080fd5b50610285610add565b6040518082815260200191505060405180910390f35b3480156102a757600080fd5b506102ea600480360360208110156102be57600080fd5b81019080803573ffffffffffffffffffffffffffffffffffffffff169060200190929190505050610ae3565b005b3480156102f857600080fd5b5061033b6004803603602081101561030f57600080fd5b81019080803573ffffffffffffffffffffffffffffffffffffffff169060200190929190505050610beb565b005b34801561034957600080fd5b506103766004803603602081101561036057600080fd5b8101908080359060200190929190505050610cf3565b005b34801561038457600080fd5b506103c76004803603602081101561039b57600080fd5b81019080803573ffffffffffffffffffffffffffffffffffffffff169060200190929190505050610d6d565b6040518082815260200191505060405180910390f35b60035481565b3073ffffffffffffffffffffffffffffffffffffffff163373ffffffffffffffffffffffffffffffffffffffff16148061046a5750600260009054906101000a900473ffffffffffffffffffffffffffffffffffffffff1673ffffffffffffffffffffffffffffffffffffffff163373ffffffffffffffffffffffffffffffffffffffff16145b806104c25750600160009054906101000a900473ffffffffffffffffffffffffffffffffffffffff1673ffffffffffffffffffffffffffffffffffffffff163373ffffffffffffffffffffffffffffffffffffffff16145b8061051957506000809054906101000a900473ffffffffffffffffffffffffffffffffffffffff1673ffffffffffffffffffffffffffffffffffffffff163373ffffffffffffffffffffffffffffffffffffffff16145b61058b576040517f08c379a00000000000000000000000000000000000000000000000000000000081526004018080602001828103825260158152602001807f596f75277265206e6f7420617574686f72697a6564000000000000000000000081525060200191505060405180910390fd5b610596838383610d85565b505050565b6000809054906101000a900473ffffffffffffffffffffffffffffffffffffffff1673ffffffffffffffffffffffffffffffffffffffff163373ffffffffffffffffffffffffffffffffffffffff161461065d576040517f08c379a00000000000000000000000000000000000000000000000000000000081526004018080602001828103825260158152602001807f596f75277265206e6f7420617574686f72697a6564000000000000000000000081525060200191505060405180910390fd5b6000809054906101000a900473ffffffffffffffffffffffffffffffffffffffff1673ffffffffffffffffffffffffffffffffffffffff166108fc829081150290604051600060405180830381858888f193505050501580156106c4573d6000803e3d6000fd5b5050565b6000809054906101000a900473ffffffffffffffffffffffffffffffffffffffff1673ffffffffffffffffffffffffffffffffffffffff163373ffffffffffffffffffffffffffffffffffffffff161461078a576040517f08c379a00000000000000000000000000000000000000000000000000000000081526004018080602001828103825260158152602001807f596f75277265206e6f7420617574686f72697a6564000000000000000000000081525060200191505060405180910390fd5b80600560008473ffffffffffffffffffffffffffffffffffffffff1673ffffffffffffffffffffffffffffffffffffffff16815260200190815260200160002060008282540192505081905550806003600082825401925050819055508173ffffffffffffffffffffffffffffffffffffffff16600073ffffffffffffffffffffffffffffffffffffffff167f4b50c34ca914ed00f92a8ac792b2cdbaec3e692f0857d22ddc591170b5d49e7c836040518082815260200191505060405180910390a35050565b6000809054906101000a900473ffffffffffffffffffffffffffffffffffffffff1673ffffffffffffffffffffffffffffffffffffffff163373ffffffffffffffffffffffffffffffffffffffff1614610913576040517f08c379a00000000000000000000000000000000000000000000000000000000081526004018080602001828103825260158152602001807f596f75277265206e6f7420617574686f72697a6564000000000000000000000081525060200191505060405180910390fd5b806004819055507ff347ee99503bf19c028bd6b18f3c676e82a9bb5b2bb5225aebe0fd62fd6a0d19816040518082815260200191505060405180910390a150565b6000809054906101000a900473ffffffffffffffffffffffffffffffffffffffff1673ffffffffffffffffffffffffffffffffffffffff163373ffffffffffffffffffffffffffffffffffffffff1614610a16576040517f08c379a00000000000000000000000000000000000000000000000000000000081526004018080602001828103825260158152602001807f596f75277265206e6f7420617574686f72697a6564000000000000000000000081525060200191505060405180910390fd5b80600560008473ffffffffffffffffffffffffffffffffffffffff1673ffffffffffffffffffffffffffffffffffffffff1681526020019081526020016000206000828254039250508190555080600360008282540392505081905550600073ffffffffffffffffffffffffffffffffffffffff168273ffffffffffffffffffffffffffffffffffffffff167f4b50c34ca914ed00f92a8ac792b2cdbaec3e692f0857d22ddc591170b5d49e7c836040518082815260200191505060405180910390a35050565b60045481565b600073ffffffffffffffffffffffffffffffffffffffff16600260009054906101000a900473ffffffffffffffffffffffffffffffffffffffff1673ffffffffffffffffffffffffffffffffffffffff1614610ba7576040517f08c379a00000000000000000000000000000000000000000000000000000000081526004018080602001828103825260148152602001807f4164647265737320686173206265656e2073657400000000000000000000000081525060200191505060405180910390fd5b80600260006101000a81548173ffffffffffffffffffffffffffffffffffffffff021916908373ffffffffffffffffffffffffffffffffffffffff16021790555050565b600073ffffffffffffffffffffffffffffffffffffffff16600160009054906101000a900473ffffffffffffffffffffffffffffffffffffffff1673ffffffffffffffffffffffffffffffffffffffff1614610caf576040517f08c379a00000000000000000000000000000000000000000000000000000000081526004018080602001828103825260148152602001807f4164647265737320686173206265656e2073657400000000000000000000000081525060200191505060405180910390fd5b80600160006101000a81548173ffffffffffffffffffffffffffffffffffffffff021916908373ffffffffffffffffffffffffffffffffffffffff16021790555050565b610d1f336000809054906101000a900473ffffffffffffffffffffffffffffffffffffffff1683610d85565b3373ffffffffffffffffffffffffffffffffffffffff166108fc60045483029081150290604051600060405180830381858888f19350505050158015610d69573d6000803e3d6000fd5b5050565b60056020528060005260406000206000915090505481565b600073ffffffffffffffffffffffffffffffffffffffff168273ffffffffffffffffffffffffffffffffffffffff161415610e0b576040517f08c379a0000000000000000000000000000000000000000000000000000000008152600401808060200182810382526021815260200180610fc56021913960400191505060405180910390fd5b600560008473ffffffffffffffffffffffffffffffffffffffff1673ffffffffffffffffffffffffffffffffffffffff16815260200190815260200160002054811115610ec0576040517f08c379a00000000000000000000000000000000000000000000000000000000081526004018080602001828103825260148152602001807f496e73756666696369656e742062616c616e636500000000000000000000000081525060200191505060405180910390fd5b80600560008573ffffffffffffffffffffffffffffffffffffffff1673ffffffffffffffffffffffffffffffffffffffff1681526020019081526020016000206000828254039250508190555080600560008473ffffffffffffffffffffffffffffffffffffffff1673ffffffffffffffffffffffffffffffffffffffff168152602001908152602001600020600082825401925050819055508173ffffffffffffffffffffffffffffffffffffffff168373ffffffffffffffffffffffffffffffffffffffff167f4b50c34ca914ed00f92a8ac792b2cdbaec3e692f0857d22ddc591170b5d49e7c836040518082815260200191505060405180910390a350505056fe44657374696e6174696f6e2061646472657373206d757374206e6f742062652030a165627a7a72305820bc92eb56ec7d5c7ff3b452dace6206a588df1f092e24c9ddb268014b043a6dd40029",
  "source": "pragma solidity >=0.4.25 <0.6.0;\n\n/**\n@author Senapati Sang Diwangkara, from Affluent team\n\n@title The Trst Token Contract\n\nTrstToken is a contract for handling Trst transaction and redeeming logic. It also provides\nthe means to monitor and manipulate the token's total supply and value in the system, that\ncan only be done by an administrator account (root).\n\nAmong the 3 contracts, this contract must be deployed first, because the vault and staking\ncontract depended on it.\n\n*/\ncontract TrstToken {\n\taddress payable root;\n    address stakeContractAddr;\n    address vaultContractAddr;\n\n\tuint256 public totalSupply; // total amount of token in the system\n\tuint256 public price; // in Wei/mTrst\n\n\tmapping (address => uint256) public balance; // in milliTrst\n\n\n\n\tconstructor() public {\n\t\troot = msg.sender;\n\t\tbalance[root] = 100000; // hard-coded initial balance\n\t\ttotalSupply = balance[root];\n\n\t\tprice = 1000; // 1000 wei == 1 milliTrst\n\t}\n\n\n\n\t// *** Modifiers ***\n    modifier onlyRoot() {\n        require(msg.sender == root, \"You're not authorized\");\n        _;\n    }\n\n    modifier onlyClint() {\n        require(msg.sender == address(this) ||\n\t\t\tmsg.sender == vaultContractAddr ||\n\t\t\tmsg.sender == stakeContractAddr ||\n\t\t\tmsg.sender == root,\n\t\t\t\"You're not authorized\");\n        _;\n    }\n\n\n\n\t// *** Events ***\n\tevent TokenTx(address indexed _from, address indexed _to, uint _value);\n\tevent PriceChange(uint _price);\n\n\n\n    // *** Operation Methods ***\n    /**\n\t* @dev Transfer some tokens from an account to another. Can only be done by another Clint\n\t* \tcontract or root\n\t* @param _from The address to transfer from\n\t* @param _to The address to transfer to\n\t* @param _value The amount to be transferred\n\t*/\n\tfunction transferFrom(address _from, address _to, uint _value) external onlyClint {\n\t\t_transferFrom(_from, _to, _value);\n\t}\n\n\t/**\n\t* @dev Redeem some token to ETH, will be sent to sender's address\n\t* @param _value The amount to be redeemed\n\t*/\n    function redeem(uint256 _value) external {\n\t\t_transferFrom(msg.sender, root, _value);\n        msg.sender.transfer(_value * price);\n    }\n\n\n\n    // *** Administrative Methods ***\n\t/**\n\t* @dev Create token out of thin air. Can only be called by root.\n\t* @param _address Destination address\n\t* @param _value The amount to be minted\n\t*/\n\tfunction mint(address _address, uint256 _value) external onlyRoot {\n\t\tbalance[_address] += _value;\n\t\ttotalSupply += _value;\n\n\t\temit TokenTx(address(0), _address, _value);\n\t}\n\n\t/**\n\t* @dev Purge token into the void. Can only be called by root.\n\t* @param _address Victim's address\n\t* @param _value The amount to be burned\n\t*/\n    function burn(address _address, uint256 _value) external onlyRoot {\n\t\tbalance[_address] -= _value;\n\t\ttotalSupply -= _value;\n\n\t\temit TokenTx(_address, address(0), _value);\n\t}\n\n\t/**\n\t* @dev Set the Wei/mTrst price. Can only be called by root.\n\t* @param _price The new price\n\t*/\n\tfunction setPrice(uint _price) external onlyRoot {\n\t\tprice = _price;\n\n\t\temit PriceChange(_price);\n\t}\n\n\t/**\n\t* @dev Fallback function. Used to deposit ETH to the contract\n\t*/\n\tfunction() external payable {}\n\n\t/**\n\t* @dev Withdraw ETH from the contract into root's account. Can only be called by root\n\t* @param _value Withdrawal amount\n\t*/\n    function withdraw(uint _value) external onlyRoot {\n        root.transfer(_value);\n    }\n\n\t/**\n\t* @dev Set the vault contract's address. Can only be called once.\n\t* @param _address vault contract's address\n\t*/\n\tfunction setVaultContractAddr(address _address) external {\n        require(vaultContractAddr == address(0), \"Address has been set\");\n        vaultContractAddr = _address;\n    }\n\n\t/**\n\t* @dev Set the stake contract's address. Can only be called once\n\t* @param _address stake contract's address\n\t*/\n    function setStakeContractAddr(address _address) external {\n        require(stakeContractAddr == address(0), \"Address has been set\");\n        stakeContractAddr = _address;\n    }\n\n\n\n\t// *** Internal Methods ***\n    /**\n\t* @dev Internal method for transfering some tokens from an account to another\n\t* @param _from The address to transfer from\n\t* @param _to The address to transfer to\n\t* @param _value The amount to be transferred\n\t*/\n\tfunction _transferFrom(address _from, address _to, uint _value) private {\n\t\trequire(_to != address(0), \"Destination address must not be 0\"); // Prevent burning?\n\t\trequire(_value <= balance[_from], \"Insufficient balance\");\n\n\t\tbalance[_from] -= _value;\n\t\tbalance[_to] += _value;\n\n\t\temit TokenTx(_from, _to, _value);\n\t}\n}",
  "sourcePath": "/home/diwangs/Codes/clint/clint-dapp/contracts/TrstToken.sol",
  "compiler": {
    "name": "solc",
    "version": "0.5.8+commit.23d335f2.Emscripten.clang"
  },
  "schemaVersion": "3.0.17",
  "updatedAt": "2019-11-09T09:21:57.094Z",
  "networkType": "ethereum",
  "devdoc": {
    "author": "Senapati Sang Diwangkara, from Affluent team",
    "methods": {
      "burn(address,uint256)": {
        "details": "Purge token into the void. Can only be called by root.",
        "params": {
          "_address": "Victim's address",
          "_value": "The amount to be burned"
        }
      },
      "mint(address,uint256)": {
        "details": "Create token out of thin air. Can only be called by root.",
        "params": {
          "_address": "Destination address",
          "_value": "The amount to be minted"
        }
      },
      "redeem(uint256)": {
        "details": "Redeem some token to ETH, will be sent to sender's address",
        "params": {
          "_value": "The amount to be redeemed"
        }
      },
      "setPrice(uint256)": {
        "details": "Set the Wei/mTrst price. Can only be called by root.",
        "params": {
          "_price": "The new price"
        }
      },
      "setStakeContractAddr(address)": {
        "details": "Set the stake contract's address. Can only be called once",
        "params": {
          "_address": "stake contract's address"
        }
      },
      "setVaultContractAddr(address)": {
        "details": "Set the vault contract's address. Can only be called once.",
        "params": {
          "_address": "vault contract's address"
        }
      },
      "transferFrom(address,address,uint256)": {
        "details": "Transfer some tokens from an account to another. Can only be done by another Clint\tcontract or root",
        "params": {
          "_from": "The address to transfer from",
          "_to": "The address to transfer to",
          "_value": "The amount to be transferred"
        }
      },
      "withdraw(uint256)": {
        "details": "Withdraw ETH from the contract into root's account. Can only be called by root",
        "params": {
          "_value": "Withdrawal amount"
        }
      }
    },
    "title": "The Trst Token Contract TrstToken is a contract for handling Trst transaction and redeeming logic. It also provides the means to monitor and manipulate the token's total supply and value in the system, that can only be done by an administrator account (root). Among the 3 contracts, this contract must be deployed first, because the vault and staking contract depended on it."
  },
  "userdoc": {
    "methods": {}
  }
}