{
  "contractName": "Vault",
  "abi": [
    {
      "constant": true,
      "inputs": [
        {
          "name": "",
          "type": "address"
        }
      ],
      "name": "term",
      "outputs": [
        {
          "name": "",
          "type": "uint256"
        }
      ],
      "payable": false,
      "stateMutability": "view",
      "type": "function"
    },
    {
      "constant": true,
      "inputs": [],
      "name": "interestRateNum",
      "outputs": [
        {
          "name": "",
          "type": "uint256"
        }
      ],
      "payable": false,
      "stateMutability": "view",
      "type": "function"
    },
    {
      "constant": true,
      "inputs": [
        {
          "name": "",
          "type": "address"
        }
      ],
      "name": "lentTimestamp",
      "outputs": [
        {
          "name": "",
          "type": "uint256"
        }
      ],
      "payable": false,
      "stateMutability": "view",
      "type": "function"
    },
    {
      "constant": true,
      "inputs": [],
      "name": "interestRateDenom",
      "outputs": [
        {
          "name": "",
          "type": "uint256"
        }
      ],
      "payable": false,
      "stateMutability": "view",
      "type": "function"
    },
    {
      "constant": true,
      "inputs": [
        {
          "name": "",
          "type": "address"
        }
      ],
      "name": "proposedLoan",
      "outputs": [
        {
          "name": "",
          "type": "uint256"
        }
      ],
      "payable": false,
      "stateMutability": "view",
      "type": "function"
    },
    {
      "constant": true,
      "inputs": [
        {
          "name": "",
          "type": "uint256"
        }
      ],
      "name": "stakable",
      "outputs": [
        {
          "name": "",
          "type": "address"
        }
      ],
      "payable": false,
      "stateMutability": "view",
      "type": "function"
    },
    {
      "constant": true,
      "inputs": [],
      "name": "latenessMultiplierNum",
      "outputs": [
        {
          "name": "",
          "type": "uint256"
        }
      ],
      "payable": false,
      "stateMutability": "view",
      "type": "function"
    },
    {
      "constant": true,
      "inputs": [
        {
          "name": "",
          "type": "address"
        }
      ],
      "name": "loanStatus",
      "outputs": [
        {
          "name": "",
          "type": "uint8"
        }
      ],
      "payable": false,
      "stateMutability": "view",
      "type": "function"
    },
    {
      "constant": true,
      "inputs": [],
      "name": "latenessMultiplierDenom",
      "outputs": [
        {
          "name": "",
          "type": "uint256"
        }
      ],
      "payable": false,
      "stateMutability": "view",
      "type": "function"
    },
    {
      "inputs": [
        {
          "name": "_tokenContractAddr",
          "type": "address"
        }
      ],
      "payable": false,
      "stateMutability": "nonpayable",
      "type": "constructor"
    },
    {
      "payable": true,
      "stateMutability": "payable",
      "type": "fallback"
    },
    {
      "anonymous": false,
      "inputs": [
        {
          "indexed": true,
          "name": "_address",
          "type": "address"
        },
        {
          "indexed": false,
          "name": "to",
          "type": "uint8"
        },
        {
          "indexed": false,
          "name": "isNormal",
          "type": "bool"
        }
      ],
      "name": "LoanStatusChange",
      "type": "event"
    },
    {
      "constant": false,
      "inputs": [
        {
          "name": "_value",
          "type": "uint256"
        },
        {
          "name": "_term",
          "type": "uint256"
        }
      ],
      "name": "proposeLoan",
      "outputs": [],
      "payable": false,
      "stateMutability": "nonpayable",
      "type": "function"
    },
    {
      "constant": false,
      "inputs": [],
      "name": "cancelProposal",
      "outputs": [],
      "payable": false,
      "stateMutability": "nonpayable",
      "type": "function"
    },
    {
      "constant": false,
      "inputs": [
        {
          "name": "_candidate",
          "type": "address"
        }
      ],
      "name": "liquidateLoan",
      "outputs": [],
      "payable": true,
      "stateMutability": "payable",
      "type": "function"
    },
    {
      "constant": false,
      "inputs": [],
      "name": "returnLoan",
      "outputs": [],
      "payable": true,
      "stateMutability": "payable",
      "type": "function"
    },
    {
      "constant": false,
      "inputs": [
        {
          "name": "_candidate",
          "type": "address"
        }
      ],
      "name": "cancelLoanOf",
      "outputs": [],
      "payable": false,
      "stateMutability": "nonpayable",
      "type": "function"
    },
    {
      "constant": false,
      "inputs": [
        {
          "name": "_value",
          "type": "uint256"
        }
      ],
      "name": "setInterestRateNum",
      "outputs": [],
      "payable": false,
      "stateMutability": "nonpayable",
      "type": "function"
    },
    {
      "constant": false,
      "inputs": [
        {
          "name": "_value",
          "type": "uint256"
        }
      ],
      "name": "setInterestRateDenom",
      "outputs": [],
      "payable": false,
      "stateMutability": "nonpayable",
      "type": "function"
    },
    {
      "constant": false,
      "inputs": [
        {
          "name": "_value",
          "type": "uint256"
        }
      ],
      "name": "setLatenessMultiplierNum",
      "outputs": [],
      "payable": false,
      "stateMutability": "nonpayable",
      "type": "function"
    },
    {
      "constant": false,
      "inputs": [
        {
          "name": "_value",
          "type": "uint256"
        }
      ],
      "name": "setLatenessMultiplierDenom",
      "outputs": [],
      "payable": false,
      "stateMutability": "nonpayable",
      "type": "function"
    },
    {
      "constant": false,
      "inputs": [
        {
          "name": "_value",
          "type": "uint256"
        }
      ],
      "name": "withdraw",
      "outputs": [],
      "payable": false,
      "stateMutability": "nonpayable",
      "type": "function"
    },
    {
      "constant": false,
      "inputs": [
        {
          "name": "_address",
          "type": "address"
        }
      ],
      "name": "setStakeContractAddr",
      "outputs": [],
      "payable": false,
      "stateMutability": "nonpayable",
      "type": "function"
    }
  ],
  "bytecode": "0x608060405234801561001057600080fd5b506040516020806121978339810180604052602081101561003057600080fd5b8101908080519060200190929190505050336000806101000a81548173ffffffffffffffffffffffffffffffffffffffff021916908373ffffffffffffffffffffffffffffffffffffffff16021790555080600260006101000a81548173ffffffffffffffffffffffffffffffffffffffff021916908373ffffffffffffffffffffffffffffffffffffffff160217905550600260009054906101000a900473ffffffffffffffffffffffffffffffffffffffff1673ffffffffffffffffffffffffffffffffffffffff1663aa3e6a83306040518263ffffffff1660e01b8152600401808273ffffffffffffffffffffffffffffffffffffffff1673ffffffffffffffffffffffffffffffffffffffff168152602001915050600060405180830381600087803b15801561016357600080fd5b505af1158015610177573d6000803e3d6000fd5b5050505060016004819055506103e860058190555060016006819055506212750060078190555050611fe9806101ae6000396000f3fe60806040526004361061011f5760003560e01c806387bafecb116100a0578063bae88d5b11610064578063bae88d5b14610517578063bbdfa00e14610568578063cb219b82146105ac578063ed963504146105e7578063fbbf4d8f146106225761011f565b806387bafecb146103e657806389d38e61146104115780639070577f14610462578063958e092a14610479578063b8949f2c146104ec5761011f565b80632e1a7d4d116100e75780632e1a7d4d146102a657806342598579146102e157806344061635146103265780636dde41d5146103a157806372dde3fe146103dc5761011f565b80630bb40bbd1461012157806312a005811461018657806312e6624a146101b1578063191beee5146102165780632490462014610241575b005b34801561012d57600080fd5b506101706004803603602081101561014457600080fd5b81019080803573ffffffffffffffffffffffffffffffffffffffff16906020019092919050505061065d565b6040518082815260200191505060405180910390f35b34801561019257600080fd5b5061019b610675565b6040518082815260200191505060405180910390f35b3480156101bd57600080fd5b50610200600480360360208110156101d457600080fd5b81019080803573ffffffffffffffffffffffffffffffffffffffff16906020019092919050505061067b565b6040518082815260200191505060405180910390f35b34801561022257600080fd5b5061022b610693565b6040518082815260200191505060405180910390f35b34801561024d57600080fd5b506102906004803603602081101561026457600080fd5b81019080803573ffffffffffffffffffffffffffffffffffffffff169060200190929190505050610699565b6040518082815260200191505060405180910390f35b3480156102b257600080fd5b506102df600480360360208110156102c957600080fd5b81019080803590602001909291905050506106b1565b005b3480156102ed57600080fd5b506103246004803603604081101561030457600080fd5b8101908080359060200190929190803590602001909291905050506107de565b005b34801561033257600080fd5b5061035f6004803603602081101561034957600080fd5b8101908080359060200190929190505050610a9d565b604051808273ffffffffffffffffffffffffffffffffffffffff1673ffffffffffffffffffffffffffffffffffffffff16815260200191505060405180910390f35b3480156103ad57600080fd5b506103da600480360360208110156103c457600080fd5b8101908080359060200190929190505050610ad9565b005b6103e4610ba5565b005b3480156103f257600080fd5b506103fb611146565b6040518082815260200191505060405180910390f35b34801561041d57600080fd5b506104606004803603602081101561043457600080fd5b81019080803573ffffffffffffffffffffffffffffffffffffffff16906020019092919050505061114c565b005b34801561046e57600080fd5b50610477611529565b005b34801561048557600080fd5b506104c86004803603602081101561049c57600080fd5b81019080803573ffffffffffffffffffffffffffffffffffffffff169060200190929190505050611662565b604051808260028111156104d857fe5b60ff16815260200191505060405180910390f35b3480156104f857600080fd5b50610501611682565b6040518082815260200191505060405180910390f35b34801561052357600080fd5b506105666004803603602081101561053a57600080fd5b81019080803573ffffffffffffffffffffffffffffffffffffffff169060200190929190505050611688565b005b6105aa6004803603602081101561057e57600080fd5b81019080803573ffffffffffffffffffffffffffffffffffffffff1690602001909291905050506117d1565b005b3480156105b857600080fd5b506105e5600480360360208110156105cf57600080fd5b8101908080359060200190929190505050611a35565b005b3480156105f357600080fd5b506106206004803603602081101561060a57600080fd5b8101908080359060200190929190505050611b01565b005b34801561062e57600080fd5b5061065b6004803603602081101561064557600080fd5b8101908080359060200190929190505050611bcd565b005b600a6020528060005260406000206000915090505481565b60045481565b600b6020528060005260406000206000915090505481565b60055481565b60096020528060005260406000206000915090505481565b6000809054906101000a900473ffffffffffffffffffffffffffffffffffffffff1673ffffffffffffffffffffffffffffffffffffffff163373ffffffffffffffffffffffffffffffffffffffff1614610773576040517f08c379a00000000000000000000000000000000000000000000000000000000081526004018080602001828103825260158152602001807f596f75277265206e6f7420617574686f72697a6564000000000000000000000081525060200191505060405180910390fd5b6000809054906101000a900473ffffffffffffffffffffffffffffffffffffffff1673ffffffffffffffffffffffffffffffffffffffff166108fc829081150290604051600060405180830381858888f193505050501580156107da573d6000803e3d6000fd5b5050565b600060028111156107eb57fe5b600860003373ffffffffffffffffffffffffffffffffffffffff1673ffffffffffffffffffffffffffffffffffffffff16815260200190815260200160002060009054906101000a900460ff16600281111561084357fe5b14610899576040517f08c379a0000000000000000000000000000000000000000000000000000000008152600401808060200182810382526023815260200180611f6c6023913960400191505060405180910390fd5b81600960003373ffffffffffffffffffffffffffffffffffffffff1673ffffffffffffffffffffffffffffffffffffffff1681526020019081526020016000208190555080600a60003373ffffffffffffffffffffffffffffffffffffffff1673ffffffffffffffffffffffffffffffffffffffff168152602001908152602001600020819055506001600860003373ffffffffffffffffffffffffffffffffffffffff1673ffffffffffffffffffffffffffffffffffffffff16815260200190815260200160002060006101000a81548160ff0219169083600281111561097d57fe5b02179055506000600c3390806001815401808255809150509060018203906000526020600020016000909192909190916101000a81548173ffffffffffffffffffffffffffffffffffffffff021916908373ffffffffffffffffffffffffffffffffffffffff160217905550905080600d60003373ffffffffffffffffffffffffffffffffffffffff1673ffffffffffffffffffffffffffffffffffffffff168152602001908152602001600020819055503373ffffffffffffffffffffffffffffffffffffffff167ffe46177cb529b1e2be32a66eb454484913803c5eb2cf39652d8c07088884a7e360018060405180836002811115610a7a57fe5b60ff168152602001821515151581526020019250505060405180910390a2505050565b600c8181548110610aaa57fe5b906000526020600020016000915054906101000a900473ffffffffffffffffffffffffffffffffffffffff1681565b6000809054906101000a900473ffffffffffffffffffffffffffffffffffffffff1673ffffffffffffffffffffffffffffffffffffffff163373ffffffffffffffffffffffffffffffffffffffff1614610b9b576040517f08c379a00000000000000000000000000000000000000000000000000000000081526004018080602001828103825260158152602001807f596f75277265206e6f7420617574686f72697a6564000000000000000000000081525060200191505060405180910390fd5b8060068190555050565b600280811115610bb157fe5b600860003373ffffffffffffffffffffffffffffffffffffffff1673ffffffffffffffffffffffffffffffffffffffff16815260200190815260200160002060009054906101000a900460ff166002811115610c0957fe5b14610c7c576040517f08c379a000000000000000000000000000000000000000000000000000000000815260040180806020018281038252601d8152602001807f596f7520646f6e2774206861766520616e20616374697665206c6f616e00000081525060200191505060405180910390fd5b600060045490506000600a60003373ffffffffffffffffffffffffffffffffffffffff1673ffffffffffffffffffffffffffffffffffffffff16815260200190815260200160002054600b60003373ffffffffffffffffffffffffffffffffffffffff1673ffffffffffffffffffffffffffffffffffffffff1681526020019081526020016000205401905080421115610d2f57600081420390506007548382600654020281610d2857fe5b0483019250505b6000600554600960003373ffffffffffffffffffffffffffffffffffffffff1673ffffffffffffffffffffffffffffffffffffffff16815260200190815260200160002054840281610d7d57fe5b04905080600960003373ffffffffffffffffffffffffffffffffffffffff1673ffffffffffffffffffffffffffffffffffffffff16815260200190815260200160002054013410610e36576040517f08c379a00000000000000000000000000000000000000000000000000000000081526004018080602001828103825260138152602001807f496e73756666696369656e7420616d6f756e740000000000000000000000000081525060200191505060405180910390fd5b610e3f33611c99565b3373ffffffffffffffffffffffffffffffffffffffff167ffe46177cb529b1e2be32a66eb454484913803c5eb2cf39652d8c07088884a7e36000600160405180836002811115610e8b57fe5b60ff168152602001821515151581526020019250505060405180910390a2600260009054906101000a900473ffffffffffffffffffffffffffffffffffffffff1673ffffffffffffffffffffffffffffffffffffffff166323b872dd6000809054906101000a900473ffffffffffffffffffffffffffffffffffffffff1633620186a06040518463ffffffff1660e01b8152600401808473ffffffffffffffffffffffffffffffffffffffff1673ffffffffffffffffffffffffffffffffffffffff1681526020018373ffffffffffffffffffffffffffffffffffffffff1673ffffffffffffffffffffffffffffffffffffffff1681526020018281526020019350505050600060405180830381600087803b158015610faa57600080fd5b505af1158015610fbe573d6000803e3d6000fd5b50505050600360009054906101000a900473ffffffffffffffffffffffffffffffffffffffff1673ffffffffffffffffffffffffffffffffffffffff166309eabfc83360016040518363ffffffff1660e01b8152600401808373ffffffffffffffffffffffffffffffffffffffff1673ffffffffffffffffffffffffffffffffffffffff1681526020018215151515815260200192505050600060405180830381600087803b15801561107057600080fd5b505af1158015611084573d6000803e3d6000fd5b50505050600360009054906101000a900473ffffffffffffffffffffffffffffffffffffffff1673ffffffffffffffffffffffffffffffffffffffff16636ed35575336040518263ffffffff1660e01b8152600401808273ffffffffffffffffffffffffffffffffffffffff1673ffffffffffffffffffffffffffffffffffffffff168152602001915050600060405180830381600087803b15801561112957600080fd5b505af115801561113d573d6000803e3d6000fd5b50505050505050565b60065481565b6000809054906101000a900473ffffffffffffffffffffffffffffffffffffffff1673ffffffffffffffffffffffffffffffffffffffff163373ffffffffffffffffffffffffffffffffffffffff161461120e576040517f08c379a00000000000000000000000000000000000000000000000000000000081526004018080602001828103825260158152602001807f596f75277265206e6f7420617574686f72697a6564000000000000000000000081525060200191505060405180910390fd5b6000600281111561121b57fe5b600860008373ffffffffffffffffffffffffffffffffffffffff1673ffffffffffffffffffffffffffffffffffffffff16815260200190815260200160002060009054906101000a900460ff16600281111561127357fe5b14156112ca576040517f08c379a000000000000000000000000000000000000000000000000000000000815260040180806020018281038252602f815260200180611f8f602f913960400191505060405180910390fd5b6112d381611c99565b6002808111156112df57fe5b600860008373ffffffffffffffffffffffffffffffffffffffff1673ffffffffffffffffffffffffffffffffffffffff16815260200190815260200160002060009054906101000a900460ff16600281111561133757fe5b141561140457600360009054906101000a900473ffffffffffffffffffffffffffffffffffffffff1673ffffffffffffffffffffffffffffffffffffffff166309eabfc83360006040518363ffffffff1660e01b8152600401808373ffffffffffffffffffffffffffffffffffffffff1673ffffffffffffffffffffffffffffffffffffffff1681526020018215151515815260200192505050600060405180830381600087803b1580156113eb57600080fd5b505af11580156113ff573d6000803e3d6000fd5b505050505b600360009054906101000a900473ffffffffffffffffffffffffffffffffffffffff1673ffffffffffffffffffffffffffffffffffffffff16636ed35575826040518263ffffffff1660e01b8152600401808273ffffffffffffffffffffffffffffffffffffffff1673ffffffffffffffffffffffffffffffffffffffff168152602001915050600060405180830381600087803b1580156114a557600080fd5b505af11580156114b9573d6000803e3d6000fd5b505050508073ffffffffffffffffffffffffffffffffffffffff167ffe46177cb529b1e2be32a66eb454484913803c5eb2cf39652d8c07088884a7e36000806040518083600281111561150857fe5b60ff168152602001821515151581526020019250505060405180910390a250565b6001600281111561153657fe5b600860003373ffffffffffffffffffffffffffffffffffffffff1673ffffffffffffffffffffffffffffffffffffffff16815260200190815260200160002060009054906101000a900460ff16600281111561158e57fe5b146115e4576040517f08c379a0000000000000000000000000000000000000000000000000000000008152600401808060200182810382526021815260200180611f4b6021913960400191505060405180910390fd5b6115ed33611c99565b6115f633611db4565b3373ffffffffffffffffffffffffffffffffffffffff167ffe46177cb529b1e2be32a66eb454484913803c5eb2cf39652d8c07088884a7e3600060016040518083600281111561164257fe5b60ff168152602001821515151581526020019250505060405180910390a2565b60086020528060005260406000206000915054906101000a900460ff1681565b60075481565b600073ffffffffffffffffffffffffffffffffffffffff16600160009054906101000a900473ffffffffffffffffffffffffffffffffffffffff1673ffffffffffffffffffffffffffffffffffffffff161461174c576040517f08c379a00000000000000000000000000000000000000000000000000000000081526004018080602001828103825260148152602001807f4164647265737320686173206265656e2073657400000000000000000000000081525060200191505060405180910390fd5b80600160006101000a81548173ffffffffffffffffffffffffffffffffffffffff021916908373ffffffffffffffffffffffffffffffffffffffff16021790555080600360006101000a81548173ffffffffffffffffffffffffffffffffffffffff021916908373ffffffffffffffffffffffffffffffffffffffff16021790555050565b600160009054906101000a900473ffffffffffffffffffffffffffffffffffffffff1673ffffffffffffffffffffffffffffffffffffffff163373ffffffffffffffffffffffffffffffffffffffff1614611894576040517f08c379a00000000000000000000000000000000000000000000000000000000081526004018080602001828103825260158152602001807f596f75277265206e6f7420617574686f72697a6564000000000000000000000081525060200191505060405180910390fd5b8073ffffffffffffffffffffffffffffffffffffffff166108fc600960008473ffffffffffffffffffffffffffffffffffffffff1673ffffffffffffffffffffffffffffffffffffffff168152602001908152602001600020549081150290604051600060405180830381858888f19350505050158015611919573d6000803e3d6000fd5b506002600860008373ffffffffffffffffffffffffffffffffffffffff1673ffffffffffffffffffffffffffffffffffffffff16815260200190815260200160002060006101000a81548160ff0219169083600281111561197657fe5b021790555042600b60008373ffffffffffffffffffffffffffffffffffffffff1673ffffffffffffffffffffffffffffffffffffffff168152602001908152602001600020819055506119c833611db4565b8073ffffffffffffffffffffffffffffffffffffffff167ffe46177cb529b1e2be32a66eb454484913803c5eb2cf39652d8c07088884a7e36002600160405180836002811115611a1457fe5b60ff168152602001821515151581526020019250505060405180910390a250565b6000809054906101000a900473ffffffffffffffffffffffffffffffffffffffff1673ffffffffffffffffffffffffffffffffffffffff163373ffffffffffffffffffffffffffffffffffffffff1614611af7576040517f08c379a00000000000000000000000000000000000000000000000000000000081526004018080602001828103825260158152602001807f596f75277265206e6f7420617574686f72697a6564000000000000000000000081525060200191505060405180910390fd5b8060078190555050565b6000809054906101000a900473ffffffffffffffffffffffffffffffffffffffff1673ffffffffffffffffffffffffffffffffffffffff163373ffffffffffffffffffffffffffffffffffffffff1614611bc3576040517f08c379a00000000000000000000000000000000000000000000000000000000081526004018080602001828103825260158152602001807f596f75277265206e6f7420617574686f72697a6564000000000000000000000081525060200191505060405180910390fd5b8060058190555050565b6000809054906101000a900473ffffffffffffffffffffffffffffffffffffffff1673ffffffffffffffffffffffffffffffffffffffff163373ffffffffffffffffffffffffffffffffffffffff1614611c8f576040517f08c379a00000000000000000000000000000000000000000000000000000000081526004018080602001828103825260158152602001807f596f75277265206e6f7420617574686f72697a6564000000000000000000000081525060200191505060405180910390fd5b8060048190555050565b600960008273ffffffffffffffffffffffffffffffffffffffff1673ffffffffffffffffffffffffffffffffffffffff16815260200190815260200160002060009055600860008273ffffffffffffffffffffffffffffffffffffffff1673ffffffffffffffffffffffffffffffffffffffff16815260200190815260200160002060006101000a81549060ff0219169055600a60008273ffffffffffffffffffffffffffffffffffffffff1673ffffffffffffffffffffffffffffffffffffffff16815260200190815260200160002060009055600b60008273ffffffffffffffffffffffffffffffffffffffff1673ffffffffffffffffffffffffffffffffffffffff1681526020019081526020016000206000905550565b6000600d60008373ffffffffffffffffffffffffffffffffffffffff1673ffffffffffffffffffffffffffffffffffffffff1681526020019081526020016000205490506001600c805490501115611e9c57600c6001600c805490500381548110611e1b57fe5b9060005260206000200160009054906101000a900473ffffffffffffffffffffffffffffffffffffffff16600c8281548110611e5357fe5b9060005260206000200160006101000a81548173ffffffffffffffffffffffffffffffffffffffff021916908373ffffffffffffffffffffffffffffffffffffffff1602179055505b600d60008373ffffffffffffffffffffffffffffffffffffffff1673ffffffffffffffffffffffffffffffffffffffff16815260200190815260200160002060009055600c805480919060019003611ef49190611ef9565b505050565b815481835581811115611f2057818360005260206000209182019101611f1f9190611f25565b5b505050565b611f4791905b80821115611f43576000816000905550600101611f2b565b5090565b9056fe596f7520646f6e2774206861766520616e206163746976652070726f706f73616c596f7520616c7265616479206861766520616e206163746976652070726f706f73616c5f63616e64696461746520646f65736e2774206861766520616374697665206c6f616e206f722070726f706f73616ca165627a7a72305820359cf182a59867935913318b63b0b5369a798d7bff7514860ff7fcec313ca44e0029",
  "source": "pragma solidity >=0.4.25 <0.6.0;\n\nimport './TrstToken.sol';\nimport './Staking.sol';\n\n/**\n@author Senapati Sang Diwangkara, from Affluent team\n\n@title The Credit Vault Contract\n\nVault is a contract that handles the credit proposal, liquidation, and settlement.\n\nAmong the 3 contracts, this contract must be deployed second, because it depends on the\ntoken contract but the staking contract depended on it.\n\n*/\ncontract Vault {\n\taddress payable root;\n\taddress stakeContractAddr;\n\tTrstToken tokenContract;\n\tStaking stakeContract;\n\n\tuint public interestRateNum;\n\tuint public interestRateDenom;\n\t// interestRate = interestRateNum / interestRateDenom\n\tuint public latenessMultiplierNum;\n\tuint public latenessMultiplierDenom;\n\t// additional rate if late:\n\t// interestRate += latenessMultiplier * late (seconds) * interestRate\n\n\tenum LoanStatus {IDLE, PROPOSED, LENT}\n\tmapping (address => LoanStatus) public loanStatus;\n\tmapping (address => uint) public proposedLoan; // in Wei\n\tmapping (address => uint) public term; // promised duration to return the ETH, in seconds\n\tmapping (address => uint) public lentTimestamp; // UNIX timestamp when the proposal is granted\n\t// TODO: change to block number?\n\taddress[] public stakable;\n\tmapping (address => uint) stakableIdx;\n\n\n\n\tconstructor(address payable _tokenContractAddr) public {\n\t\troot = msg.sender;\n\t\ttokenContract = TrstToken(_tokenContractAddr);\n\t\ttokenContract.setVaultContractAddr(address(this));\n\n\t\tinterestRateNum = 1;\n\t\tinterestRateDenom = 1e3; // 0.1%\n\t\tlatenessMultiplierNum = 1;\n\t\tlatenessMultiplierDenom = 1209600; // 2 weeks\n\t}\n\n\n\n\t// *** Modifiers ***\n\tmodifier onlyRoot() {\n\t\trequire(msg.sender == root, \"You're not authorized\");\n\t\t_;\n\t}\n\n\tmodifier onlyStakeContract() {\n\t\trequire(msg.sender == stakeContractAddr, \"You're not authorized\");\n\t\t_;\n\t}\n\n\n\n\t// *** Events ***\n\tevent LoanStatusChange(address indexed _address, LoanStatus to, bool isNormal);\n\n\n\n\t// *** Operation Methods ***\n\t/**\n\t* @dev Proposes a loan to the Clint system. Each address can only have 1 active lending\n\t*   process at a time\n\t* @param _value The amount of money to be lent\n\t* @param _term The promised duration to return the money (in seconds)\n\t*/\n\tfunction proposeLoan(uint _value, uint _term) external {\n\t\trequire(loanStatus[msg.sender] == LoanStatus.IDLE, \"You already have an active proposal\");\n\t\t// TODO: check _value?\n\n\t\tproposedLoan[msg.sender] = _value;\n\t\tterm[msg.sender] = _term;\n\t\tloanStatus[msg.sender] = LoanStatus.PROPOSED;\n\n\t\tuint len = stakable.push(msg.sender);\n\t\tstakableIdx[msg.sender] = len;\n\n\t\temit LoanStatusChange(msg.sender, LoanStatus.PROPOSED, true);\n\t}\n\n\t/**\n\t* @dev Cancel a loan proposal. The sender must be in the PROPOSED state, i.e. have a\n\t*   proposed loan but not yet granted\n\t*/\n\tfunction cancelProposal() external {\n\t\trequire(loanStatus[msg.sender] == LoanStatus.PROPOSED, \"You don't have an active proposal\");\n\n\t\t_cancelLoan(msg.sender);\n\t\t_removeStakable(msg.sender);\n\n\t\temit LoanStatusChange(msg.sender, LoanStatus.IDLE, true);\n\t}\n\n\t/**\n\t* @dev Grant a loan to a proposer. Can only be called by stake contract\n\t* @param _candidate The proposer's address\n\t*/\n\tfunction liquidateLoan(address payable _candidate) external onlyStakeContract payable {\n\t\t// send ether from root to _candidate\n\t\t_candidate.transfer(proposedLoan[_candidate]);\n\n\t\t// change loanStatus and lentTimestamp\n\t\tloanStatus[_candidate] = LoanStatus.LENT;\n\t\tlentTimestamp[_candidate] = block.timestamp;\n\n\t\t_removeStakable(msg.sender);\n\n\t\temit LoanStatusChange(_candidate, LoanStatus.LENT, true);\n\t}\n\n\t/**\n\t* @dev Return a loan to the Clint system. If the paid amount exceeds what is stated, the\n\t*   excess will be kept by the contract\n\t*/\n\tfunction returnLoan() external payable {\n\t\trequire(loanStatus[msg.sender] == LoanStatus.LENT, \"You don't have an active loan\");\n\n\t\tuint effRateNum = interestRateNum;\n\t\t// add interest if it's late\n\t\tuint deadlineTimestamp = lentTimestamp[msg.sender] + term[msg.sender];\n\t\tif (block.timestamp > deadlineTimestamp) {\n\t\t\tuint lateness = block.timestamp - deadlineTimestamp;\n\t\t\teffRateNum += latenessMultiplierNum * lateness * effRateNum / latenessMultiplierDenom;\n\t\t}\n\t\tuint interest = effRateNum * proposedLoan[msg.sender] / interestRateDenom;\n\t\trequire(msg.value < proposedLoan[msg.sender] + interest, \"Insufficient amount\");\n\n\t\t// receive eth is done at the background\n\t\t_cancelLoan(msg.sender);\n\t\temit LoanStatusChange(msg.sender, LoanStatus.IDLE, true);\n\n\t\t// Give Token incentive\n\t\ttokenContract.transferFrom(root, msg.sender, 100000); // TODO: change incentive mechanics\n\t\tstakeContract.calcAndGiveIncentive(msg.sender, true);\n\t\tstakeContract.resetAllStakesOn(msg.sender);\n\t}\n\n\n\n\t// *** Administrative Methods ***\n\t/**\n\t* @dev Manually cancels the loan process of a proposer. Can only be called by root\n\t* @param _candidate The proposer's address\n\t*/\n\tfunction cancelLoanOf(address _candidate) external onlyRoot {\n\t\trequire(loanStatus[_candidate] != LoanStatus.IDLE, \"_candidate doesn't have active loan or proposal\");\n\t\t_cancelLoan(_candidate);\n\t\tif (loanStatus[_candidate] == LoanStatus.LENT) {\n\t\t\tstakeContract.calcAndGiveIncentive(msg.sender, false);\n\t\t}\n\t\tstakeContract.resetAllStakesOn(_candidate);\n\n\t\temit LoanStatusChange(_candidate, LoanStatus.IDLE, false);\n\t}\n\n\t/**\n\t* @dev Set the interest rate's numerator. Can only be called by root\n\t* @param _value New interestRateNum value\n\t*/\n\tfunction setInterestRateNum(uint _value) external onlyRoot {\n\t\tinterestRateNum = _value;\n\t}\n\n\t/**\n\t* @dev Set the interest rate's denominator. Can only be called by root\n\t* @param _value New interestRateDenom value\n\t*/\n\tfunction setInterestRateDenom(uint _value) external onlyRoot {\n\t\tinterestRateDenom = _value;\n\t}\n\n\t/**\n\t* @dev Set the lateness rate's numerator. Can only be called by root\n\t* @param _value New latenessMultiplierNum value\n\t*/\n\tfunction setLatenessMultiplierNum(uint _value) external onlyRoot {\n\t\tlatenessMultiplierNum = _value;\n\t}\n\n\t/**\n\t* @dev Set the lateness rate's denominator. Can only be called by root\n\t* @param _value New latenessMultiplierDenom value\n\t*/\n\tfunction setLatenessMultiplierDenom(uint _value) external onlyRoot {\n\t\tlatenessMultiplierDenom = _value;\n\t}\n\n\t/**\n\t* @dev Fallback function. Used to deposit ETH to the contract\n\t*/\n\tfunction() external payable {}\n\n\t/**\n\t* @dev Withdraw ETH from the contract into root's account. Can only be called by root\n\t* @param _value Withdrawal amount\n\t*/\n\tfunction withdraw(uint _value) external onlyRoot {\n\t\troot.transfer(_value);\n\t}\n\n\t/**\n\t* @dev Set the stake contract's address. Can only be called once\n\t* @param _address stake contract's address\n\t*/\n\tfunction setStakeContractAddr(address _address) external {\n\t\trequire(stakeContractAddr == address(0), \"Address has been set\");\n\t\tstakeContractAddr = _address;\n\t\tstakeContract = Staking(_address);\n\t}\n\n\n\n\t// *** Private Methods ***\n\t/**\n\t* @dev A private method to clear the state of a loan proposer\n\t* @param _candidate The proposer's address\n\t*/\n\tfunction _cancelLoan(address _candidate) private {\n\t\tdelete proposedLoan[_candidate];\n\t\tdelete loanStatus[_candidate];\n\t\tdelete term[_candidate];\n\t\tdelete lentTimestamp[_candidate];\n\t}\n\n\tfunction _removeStakable(address candidate) private {\n\t\tuint index = stakableIdx[candidate];\n\n\t\tif (stakable.length > 1) {\n\t\t\tstakable[index] = stakable[stakable.length-1];\n\t\t}\n\n\t\tdelete stakableIdx[candidate];\n\t\tstakable.length--; // Implicitly recovers gas from last element storage\n\t}\n}\n",
  "sourcePath": "/home/diwangs/Codes/clint/clint-dapp/contracts/Vault.sol",
  "compiler": {
    "name": "solc",
    "version": "0.5.8+commit.23d335f2.Emscripten.clang"
  },
  "schemaVersion": "3.0.17",
  "updatedAt": "2019-11-13T15:50:02.048Z",
  "networkType": "ethereum",
  "devdoc": {
    "author": "Senapati Sang Diwangkara, from Affluent team",
    "methods": {
      "cancelLoanOf(address)": {
        "details": "Manually cancels the loan process of a proposer. Can only be called by root",
        "params": {
          "_candidate": "The proposer's address"
        }
      },
      "cancelProposal()": {
        "details": "Cancel a loan proposal. The sender must be in the PROPOSED state, i.e. have a  proposed loan but not yet granted"
      },
      "liquidateLoan(address)": {
        "details": "Grant a loan to a proposer. Can only be called by stake contract",
        "params": {
          "_candidate": "The proposer's address"
        }
      },
      "proposeLoan(uint256,uint256)": {
        "details": "Proposes a loan to the Clint system. Each address can only have 1 active lending  process at a time",
        "params": {
          "_term": "The promised duration to return the money (in seconds)",
          "_value": "The amount of money to be lent"
        }
      },
      "returnLoan()": {
        "details": "Return a loan to the Clint system. If the paid amount exceeds what is stated, the  excess will be kept by the contract"
      },
      "setInterestRateDenom(uint256)": {
        "details": "Set the interest rate's denominator. Can only be called by root",
        "params": {
          "_value": "New interestRateDenom value"
        }
      },
      "setInterestRateNum(uint256)": {
        "details": "Set the interest rate's numerator. Can only be called by root",
        "params": {
          "_value": "New interestRateNum value"
        }
      },
      "setLatenessMultiplierDenom(uint256)": {
        "details": "Set the lateness rate's denominator. Can only be called by root",
        "params": {
          "_value": "New latenessMultiplierDenom value"
        }
      },
      "setLatenessMultiplierNum(uint256)": {
        "details": "Set the lateness rate's numerator. Can only be called by root",
        "params": {
          "_value": "New latenessMultiplierNum value"
        }
      },
      "setStakeContractAddr(address)": {
        "details": "Set the stake contract's address. Can only be called once",
        "params": {
          "_address": "stake contract's address"
        }
      },
      "withdraw(uint256)": {
        "details": "Withdraw ETH from the contract into root's account. Can only be called by root",
        "params": {
          "_value": "Withdrawal amount"
        }
      }
    },
    "title": "The Credit Vault Contract Vault is a contract that handles the credit proposal, liquidation, and settlement. Among the 3 contracts, this contract must be deployed second, because it depends on the token contract but the staking contract depended on it."
  },
  "userdoc": {
    "methods": {}
  }
}